{
  "_format": "hh-sol-artifact-1",
  "contractName": "KataCoins",
  "sourceName": "contracts/KataCoins.sol",
  "abi": [
    {
      "inputs": [],
      "stateMutability": "nonpayable",
      "type": "constructor"
    },
    {
      "anonymous": false,
      "inputs": [
        {
          "indexed": true,
          "internalType": "address",
          "name": "owner",
          "type": "address"
        },
        {
          "indexed": true,
          "internalType": "address",
          "name": "approved",
          "type": "address"
        },
        {
          "indexed": true,
          "internalType": "uint256",
          "name": "tokenId",
          "type": "uint256"
        }
      ],
      "name": "Approval",
      "type": "event"
    },
    {
      "anonymous": false,
      "inputs": [
        {
          "indexed": true,
          "internalType": "address",
          "name": "owner",
          "type": "address"
        },
        {
          "indexed": true,
          "internalType": "address",
          "name": "operator",
          "type": "address"
        },
        {
          "indexed": false,
          "internalType": "bool",
          "name": "approved",
          "type": "bool"
        }
      ],
      "name": "ApprovalForAll",
      "type": "event"
    },
    {
      "anonymous": false,
      "inputs": [
        {
          "indexed": true,
          "internalType": "address",
          "name": "previousOwner",
          "type": "address"
        },
        {
          "indexed": true,
          "internalType": "address",
          "name": "newOwner",
          "type": "address"
        }
      ],
      "name": "OwnershipTransferred",
      "type": "event"
    },
    {
      "anonymous": false,
      "inputs": [
        {
          "indexed": true,
          "internalType": "address",
          "name": "from",
          "type": "address"
        },
        {
          "indexed": true,
          "internalType": "address",
          "name": "to",
          "type": "address"
        },
        {
          "indexed": true,
          "internalType": "uint256",
          "name": "tokenId",
          "type": "uint256"
        }
      ],
      "name": "Transfer",
      "type": "event"
    },
    {
      "inputs": [
        {
          "internalType": "address",
          "name": "to",
          "type": "address"
        },
        {
          "internalType": "uint256",
          "name": "tokenId",
          "type": "uint256"
        }
      ],
      "name": "approve",
      "outputs": [],
      "stateMutability": "nonpayable",
      "type": "function"
    },
    {
      "inputs": [
        {
          "internalType": "address",
          "name": "owner",
          "type": "address"
        }
      ],
      "name": "balanceOf",
      "outputs": [
        {
          "internalType": "uint256",
          "name": "",
          "type": "uint256"
        }
      ],
      "stateMutability": "view",
      "type": "function"
    },
    {
      "inputs": [
        {
          "internalType": "uint256",
          "name": "newFee",
          "type": "uint256"
        }
      ],
      "name": "changeLevelUpFee",
      "outputs": [],
      "stateMutability": "nonpayable",
      "type": "function"
    },
    {
      "inputs": [
        {
          "internalType": "string",
          "name": "name",
          "type": "string"
        },
        {
          "internalType": "string",
          "name": "statement",
          "type": "string"
        },
        {
          "internalType": "string",
          "name": "functionDeclaration",
          "type": "string"
        },
        {
          "internalType": "string",
          "name": "test",
          "type": "string"
        }
      ],
      "name": "createKata",
      "outputs": [
        {
          "internalType": "uint256",
          "name": "",
          "type": "uint256"
        }
      ],
      "stateMutability": "nonpayable",
      "type": "function"
    },
    {
      "inputs": [
        {
          "internalType": "address",
          "name": "user",
          "type": "address"
        },
        {
          "internalType": "uint256",
          "name": "kataId",
          "type": "uint256"
        }
      ],
      "name": "executeKata",
      "outputs": [],
      "stateMutability": "nonpayable",
      "type": "function"
    },
    {
      "inputs": [],
      "name": "getAllKata",
      "outputs": [
        {
          "components": [
            {
              "internalType": "uint256",
              "name": "id",
              "type": "uint256"
            },
            {
              "internalType": "string",
              "name": "name",
              "type": "string"
            },
            {
              "internalType": "string",
              "name": "statement",
              "type": "string"
            },
            {
              "internalType": "string",
              "name": "functionDeclaration",
              "type": "string"
            },
            {
              "internalType": "string",
              "name": "test",
              "type": "string"
            }
          ],
          "internalType": "struct KataCoins.Kata[]",
          "name": "",
          "type": "tuple[]"
        }
      ],
      "stateMutability": "view",
      "type": "function"
    },
    {
      "inputs": [
        {
          "internalType": "uint256",
          "name": "tokenId",
          "type": "uint256"
        }
      ],
      "name": "getApproved",
      "outputs": [
        {
          "internalType": "address",
          "name": "",
          "type": "address"
        }
      ],
      "stateMutability": "view",
      "type": "function"
    },
    {
      "inputs": [],
      "name": "getCredit",
      "outputs": [
        {
          "internalType": "uint256",
          "name": "",
          "type": "uint256"
        }
      ],
      "stateMutability": "view",
      "type": "function"
    },
    {
      "inputs": [],
      "name": "getExecFee",
      "outputs": [
        {
          "internalType": "uint256",
          "name": "",
          "type": "uint256"
        }
      ],
      "stateMutability": "view",
      "type": "function"
    },
    {
      "inputs": [
        {
          "internalType": "uint256",
          "name": "kataId",
          "type": "uint256"
        }
      ],
      "name": "getKata",
      "outputs": [
        {
          "components": [
            {
              "components": [
                {
                  "internalType": "uint256",
                  "name": "id",
                  "type": "uint256"
                },
                {
                  "internalType": "string",
                  "name": "name",
                  "type": "string"
                },
                {
                  "internalType": "string",
                  "name": "statement",
                  "type": "string"
                },
                {
                  "internalType": "string",
                  "name": "functionDeclaration",
                  "type": "string"
                },
                {
                  "internalType": "string",
                  "name": "test",
                  "type": "string"
                }
              ],
              "internalType": "struct KataCoins.Kata",
              "name": "kata",
              "type": "tuple"
            },
            {
              "internalType": "bool",
              "name": "isOwned",
              "type": "bool"
            }
          ],
          "internalType": "struct KataCoins.Response",
          "name": "",
          "type": "tuple"
        }
      ],
      "stateMutability": "view",
      "type": "function"
    },
    {
      "inputs": [
        {
          "internalType": "address",
          "name": "user",
          "type": "address"
        },
        {
          "internalType": "uint256",
          "name": "kataID",
          "type": "uint256"
        }
      ],
      "name": "hasSolvedKata",
      "outputs": [
        {
          "internalType": "bool",
          "name": "",
          "type": "bool"
        }
      ],
      "stateMutability": "view",
      "type": "function"
    },
    {
      "inputs": [
        {
          "internalType": "address",
          "name": "owner",
          "type": "address"
        },
        {
          "internalType": "address",
          "name": "operator",
          "type": "address"
        }
      ],
      "name": "isApprovedForAll",
      "outputs": [
        {
          "internalType": "bool",
          "name": "",
          "type": "bool"
        }
      ],
      "stateMutability": "view",
      "type": "function"
    },
    {
      "inputs": [
        {
          "internalType": "uint256",
          "name": "tokenId",
          "type": "uint256"
        }
      ],
      "name": "mintKata",
      "outputs": [],
      "stateMutability": "nonpayable",
      "type": "function"
    },
    {
      "inputs": [],
      "name": "name",
      "outputs": [
        {
          "internalType": "string",
          "name": "",
          "type": "string"
        }
      ],
      "stateMutability": "view",
      "type": "function"
    },
    {
      "inputs": [],
      "name": "owner",
      "outputs": [
        {
          "internalType": "address",
          "name": "",
          "type": "address"
        }
      ],
      "stateMutability": "view",
      "type": "function"
    },
    {
      "inputs": [
        {
          "internalType": "uint256",
          "name": "tokenId",
          "type": "uint256"
        }
      ],
      "name": "ownerOf",
      "outputs": [
        {
          "internalType": "address",
          "name": "",
          "type": "address"
        }
      ],
      "stateMutability": "view",
      "type": "function"
    },
    {
      "inputs": [
        {
          "internalType": "uint256",
          "name": "nbTry",
          "type": "uint256"
        }
      ],
      "name": "payCredit",
      "outputs": [],
      "stateMutability": "payable",
      "type": "function"
    },
    {
      "inputs": [],
      "name": "renounceOwnership",
      "outputs": [],
      "stateMutability": "nonpayable",
      "type": "function"
    },
    {
      "inputs": [
        {
          "internalType": "address",
          "name": "from",
          "type": "address"
        },
        {
          "internalType": "address",
          "name": "to",
          "type": "address"
        },
        {
          "internalType": "uint256",
          "name": "tokenId",
          "type": "uint256"
        }
      ],
      "name": "safeTransferFrom",
      "outputs": [],
      "stateMutability": "nonpayable",
      "type": "function"
    },
    {
      "inputs": [
        {
          "internalType": "address",
          "name": "from",
          "type": "address"
        },
        {
          "internalType": "address",
          "name": "to",
          "type": "address"
        },
        {
          "internalType": "uint256",
          "name": "tokenId",
          "type": "uint256"
        },
        {
          "internalType": "bytes",
          "name": "data",
          "type": "bytes"
        }
      ],
      "name": "safeTransferFrom",
      "outputs": [],
      "stateMutability": "nonpayable",
      "type": "function"
    },
    {
      "inputs": [
        {
          "internalType": "address",
          "name": "operator",
          "type": "address"
        },
        {
          "internalType": "bool",
          "name": "approved",
          "type": "bool"
        }
      ],
      "name": "setApprovalForAll",
      "outputs": [],
      "stateMutability": "nonpayable",
      "type": "function"
    },
    {
      "inputs": [
        {
          "internalType": "address",
          "name": "user",
          "type": "address"
        },
        {
          "internalType": "uint256",
          "name": "kataID",
          "type": "uint256"
        }
      ],
      "name": "setHasSolvedKata",
      "outputs": [],
      "stateMutability": "nonpayable",
      "type": "function"
    },
    {
      "inputs": [
        {
          "internalType": "bytes4",
          "name": "interfaceId",
          "type": "bytes4"
        }
      ],
      "name": "supportsInterface",
      "outputs": [
        {
          "internalType": "bool",
          "name": "",
          "type": "bool"
        }
      ],
      "stateMutability": "view",
      "type": "function"
    },
    {
      "inputs": [],
      "name": "symbol",
      "outputs": [
        {
          "internalType": "string",
          "name": "",
          "type": "string"
        }
      ],
      "stateMutability": "view",
      "type": "function"
    },
    {
      "inputs": [
        {
          "internalType": "uint256",
          "name": "tokenId",
          "type": "uint256"
        }
      ],
      "name": "tokenURI",
      "outputs": [
        {
          "internalType": "string",
          "name": "",
          "type": "string"
        }
      ],
      "stateMutability": "view",
      "type": "function"
    },
    {
      "inputs": [
        {
          "internalType": "address",
          "name": "from",
          "type": "address"
        },
        {
          "internalType": "address",
          "name": "to",
          "type": "address"
        },
        {
          "internalType": "uint256",
          "name": "tokenId",
          "type": "uint256"
        }
      ],
      "name": "transferFrom",
      "outputs": [],
      "stateMutability": "nonpayable",
      "type": "function"
    },
    {
      "inputs": [
        {
          "internalType": "address",
          "name": "newOwner",
          "type": "address"
        }
      ],
      "name": "transferOwnership",
      "outputs": [],
      "stateMutability": "nonpayable",
      "type": "function"
    }
  ],
  "bytecode": "0x6080604052600060075566038d7ea4c6800060085560146009553480156200002657600080fd5b506040518060400160405280600981526020017f4b617461436f696e7300000000000000000000000000000000000000000000008152506040518060400160405280600381526020017f4b54430000000000000000000000000000000000000000000000000000000000815250620000b3620000a7620000df60201b60201c565b620000e760201b60201c565b8160019081620000c4919062000425565b508060029081620000d6919062000425565b5050506200050c565b600033905090565b60008060009054906101000a900473ffffffffffffffffffffffffffffffffffffffff169050816000806101000a81548173ffffffffffffffffffffffffffffffffffffffff021916908373ffffffffffffffffffffffffffffffffffffffff1602179055508173ffffffffffffffffffffffffffffffffffffffff168173ffffffffffffffffffffffffffffffffffffffff167f8be0079c531659141344cd1fd0a4f28419497f9722a3daafe3b4186f6b6457e060405160405180910390a35050565b600081519050919050565b7f4e487b7100000000000000000000000000000000000000000000000000000000600052604160045260246000fd5b7f4e487b7100000000000000000000000000000000000000000000000000000000600052602260045260246000fd5b600060028204905060018216806200022d57607f821691505b602082108103620002435762000242620001e5565b5b50919050565b60008190508160005260206000209050919050565b60006020601f8301049050919050565b600082821b905092915050565b600060088302620002ad7fffffffffffffffffffffffffffffffffffffffffffffffffffffffffffffffff826200026e565b620002b986836200026e565b95508019841693508086168417925050509392505050565b6000819050919050565b6000819050919050565b60006200030662000300620002fa84620002d1565b620002db565b620002d1565b9050919050565b6000819050919050565b6200032283620002e5565b6200033a62000331826200030d565b8484546200027b565b825550505050565b600090565b6200035162000342565b6200035e81848462000317565b505050565b5b8181101562000386576200037a60008262000347565b60018101905062000364565b5050565b601f821115620003d5576200039f8162000249565b620003aa846200025e565b81016020851015620003ba578190505b620003d2620003c9856200025e565b83018262000363565b50505b505050565b600082821c905092915050565b6000620003fa60001984600802620003da565b1980831691505092915050565b6000620004158383620003e7565b9150826002028217905092915050565b6200043082620001ab565b67ffffffffffffffff8111156200044c576200044b620001b6565b5b62000458825462000214565b620004658282856200038a565b600060209050601f8311600181146200049d576000841562000488578287015190505b62000494858262000407565b86555062000504565b601f198416620004ad8662000249565b60005b82811015620004d757848901518255600182019150602085019450602081019050620004b0565b86831015620004f75784890151620004f3601f891682620003e7565b8355505b6001600288020188555050505b505050505050565b61466c806200051c6000396000f3fe60806040526004361061019c5760003560e01c8063715018a6116100ec578063be9c3cec1161008a578063d62605d511610064578063d62605d5146105ea578063e2f805cd14610606578063e985e9c51461062f578063f2fde38b1461066c5761019c565b8063be9c3cec1461055b578063c87b56dd14610584578063d578f0ed146105c15761019c565b806394d18e66116100c657806394d18e66146104a157806395d89b41146104de578063a22cb46514610509578063b88d4fde146105325761019c565b8063715018a614610422578063858a3746146104395780638da5cb5b146104765761019c565b806342842e0e1161015957806359296e7b1161013357806359296e7b146103545780636352211e1461037f5780636992ba8d146103bc57806370a08231146103e55761019c565b806342842e0e146102d55780634d3ffd97146102fe578063555e0673146103295761019c565b806301ffc9a7146101a157806306fdde03146101de578063081812fc14610209578063095ea7b3146102465780631b52234c1461026f57806323b872dd146102ac575b600080fd5b3480156101ad57600080fd5b506101c860048036038101906101c39190612e31565b610695565b6040516101d59190612e79565b60405180910390f35b3480156101ea57600080fd5b506101f3610777565b6040516102009190612f24565b60405180910390f35b34801561021557600080fd5b50610230600480360381019061022b9190612f7c565b610809565b60405161023d9190612fea565b60405180910390f35b34801561025257600080fd5b5061026d60048036038101906102689190613031565b61084f565b005b34801561027b57600080fd5b5061029660048036038101906102919190613031565b610966565b6040516102a39190612e79565b60405180910390f35b3480156102b857600080fd5b506102d360048036038101906102ce9190613071565b610a87565b005b3480156102e157600080fd5b506102fc60048036038101906102f79190613071565b610ae7565b005b34801561030a57600080fd5b50610313610b07565b60405161032091906130d3565b60405180910390f35b34801561033557600080fd5b5061033e610b11565b60405161034b9190613294565b60405180910390f35b34801561036057600080fd5b50610369610dc2565b60405161037691906130d3565b60405180910390f35b34801561038b57600080fd5b506103a660048036038101906103a19190612f7c565b610e88565b6040516103b39190612fea565b60405180910390f35b3480156103c857600080fd5b506103e360048036038101906103de9190612f7c565b610f0e565b005b3480156103f157600080fd5b5061040c600480360381019061040791906132b6565b610f83565b60405161041991906130d3565b60405180910390f35b34801561042e57600080fd5b5061043761103a565b005b34801561044557600080fd5b50610460600480360381019061045b9190613348565b61104e565b60405161046d91906130d3565b60405180910390f35b34801561048257600080fd5b5061048b611255565b6040516104989190612fea565b60405180910390f35b3480156104ad57600080fd5b506104c860048036038101906104c39190612f7c565b61127e565b6040516104d5919061347d565b60405180910390f35b3480156104ea57600080fd5b506104f36115eb565b6040516105009190612f24565b60405180910390f35b34801561051557600080fd5b50610530600480360381019061052b91906134cb565b61167d565b005b34801561053e57600080fd5b506105596004803603810190610554919061363b565b611693565b005b34801561056757600080fd5b50610582600480360381019061057d9190613031565b6116f5565b005b34801561059057600080fd5b506105ab60048036038101906105a69190612f7c565b6117ec565b6040516105b89190612f24565b60405180910390f35b3480156105cd57600080fd5b506105e860048036038101906105e39190613031565b611854565b005b61060460048036038101906105ff9190612f7c565b6119e8565b005b34801561061257600080fd5b5061062d60048036038101906106289190612f7c565b611b15565b005b34801561063b57600080fd5b50610656600480360381019061065191906136be565b611b27565b6040516106639190612e79565b60405180910390f35b34801561067857600080fd5b50610693600480360381019061068e91906132b6565b611bbb565b005b60007f80ac58cd000000000000000000000000000000000000000000000000000000007bffffffffffffffffffffffffffffffffffffffffffffffffffffffff1916827bffffffffffffffffffffffffffffffffffffffffffffffffffffffff1916148061076057507f5b5e139f000000000000000000000000000000000000000000000000000000007bffffffffffffffffffffffffffffffffffffffffffffffffffffffff1916827bffffffffffffffffffffffffffffffffffffffffffffffffffffffff1916145b80610770575061076f82611c3e565b5b9050919050565b6060600180546107869061372d565b80601f01602080910402602001604051908101604052809291908181526020018280546107b29061372d565b80156107ff5780601f106107d4576101008083540402835291602001916107ff565b820191906000526020600020905b8154815290600101906020018083116107e257829003601f168201915b5050505050905090565b600061081482611ca8565b6005600083815260200190815260200160002060009054906101000a900473ffffffffffffffffffffffffffffffffffffffff169050919050565b600061085a82610e88565b90508073ffffffffffffffffffffffffffffffffffffffff168373ffffffffffffffffffffffffffffffffffffffff16036108ca576040517f08c379a00000000000000000000000000000000000000000000000000000000081526004016108c1906137d0565b60405180910390fd5b8073ffffffffffffffffffffffffffffffffffffffff166108e9611cf3565b73ffffffffffffffffffffffffffffffffffffffff161480610918575061091781610912611cf3565b611b27565b5b610957576040517f08c379a000000000000000000000000000000000000000000000000000000000815260040161094e90613862565b60405180910390fd5b6109618383611cfb565b505050565b600080600b60008481526020019081526020016000208054806020026020016040519081016040528092919081815260200182805480156109fc57602002820191906000526020600020905b8160009054906101000a900473ffffffffffffffffffffffffffffffffffffffff1673ffffffffffffffffffffffffffffffffffffffff16815260200190600101908083116109b2575b5050505050905060005b8151811015610a7a578473ffffffffffffffffffffffffffffffffffffffff16828281518110610a3957610a38613882565b5b602002602001015173ffffffffffffffffffffffffffffffffffffffff1603610a6757600192505050610a81565b8080610a72906138e0565b915050610a06565b5060009150505b92915050565b610a98610a92611cf3565b82611db4565b610ad7576040517f08c379a0000000000000000000000000000000000000000000000000000000008152600401610ace9061399a565b60405180910390fd5b610ae2838383611e49565b505050565b610b0283838360405180602001604052806000815250611693565b505050565b6000600854905090565b6060600a805480602002602001604051908101604052809291908181526020016000905b82821015610db957838290600052602060002090600502016040518060a001604052908160008201548152602001600182018054610b729061372d565b80601f0160208091040260200160405190810160405280929190818152602001828054610b9e9061372d565b8015610beb5780601f10610bc057610100808354040283529160200191610beb565b820191906000526020600020905b815481529060010190602001808311610bce57829003601f168201915b50505050508152602001600282018054610c049061372d565b80601f0160208091040260200160405190810160405280929190818152602001828054610c309061372d565b8015610c7d5780601f10610c5257610100808354040283529160200191610c7d565b820191906000526020600020905b815481529060010190602001808311610c6057829003601f168201915b50505050508152602001600382018054610c969061372d565b80601f0160208091040260200160405190810160405280929190818152602001828054610cc29061372d565b8015610d0f5780601f10610ce457610100808354040283529160200191610d0f565b820191906000526020600020905b815481529060010190602001808311610cf257829003601f168201915b50505050508152602001600482018054610d289061372d565b80601f0160208091040260200160405190810160405280929190818152602001828054610d549061372d565b8015610da15780601f10610d7657610100808354040283529160200191610da1565b820191906000526020600020905b815481529060010190602001808311610d8457829003601f168201915b50505050508152505081526020019060010190610b35565b50505050905090565b6000610e436040518060400160405280600981526020017f676574437265646974000000000000000000000000000000000000000000000081525033600c60003373ffffffffffffffffffffffffffffffffffffffff1673ffffffffffffffffffffffffffffffffffffffff16815260200190815260200160002054612142565b600c60003373ffffffffffffffffffffffffffffffffffffffff1673ffffffffffffffffffffffffffffffffffffffff16815260200190815260200160002054905090565b600080610e94836121e1565b9050600073ffffffffffffffffffffffffffffffffffffffff168173ffffffffffffffffffffffffffffffffffffffff1603610f05576040517f08c379a0000000000000000000000000000000000000000000000000000000008152600401610efc90613a06565b60405180910390fd5b80915050919050565b610f183382610966565b610f57576040517f08c379a0000000000000000000000000000000000000000000000000000000008152600401610f4e90613a98565b60405180910390fd5b600b60008281526020019081526020016000206000610f769190612d36565b610f80338261221e565b50565b60008073ffffffffffffffffffffffffffffffffffffffff168273ffffffffffffffffffffffffffffffffffffffff1603610ff3576040517f08c379a0000000000000000000000000000000000000000000000000000000008152600401610fea90613b2a565b60405180910390fd5b600460008373ffffffffffffffffffffffffffffffffffffffff1673ffffffffffffffffffffffffffffffffffffffff168152602001908152602001600020549050919050565b61104261223c565b61104c60006122ba565b565b600061105861223c565b600a6040518060a0016040528060075481526020018b8b8080601f016020809104026020016040519081016040528093929190818152602001838380828437600081840152601f19601f82011690508083019250505050505050815260200189898080601f016020809104026020016040519081016040528093929190818152602001838380828437600081840152601f19601f82011690508083019250505050505050815260200187878080601f016020809104026020016040519081016040528093929190818152602001838380828437600081840152601f19601f82011690508083019250505050505050815260200185858080601f016020809104026020016040519081016040528093929190818152602001838380828437600081840152601f19601f8201169050808301925050505050505081525090806001815401808255809150506001900390600052602060002090600502016000909190919091506000820151816000015560208201518160010190816111db9190613cf6565b5060408201518160020190816111f19190613cf6565b5060608201518160030190816112079190613cf6565b50608082015181600401908161121d9190613cf6565b50505060076000815480929190611233906138e0565b919050555060016007546112479190613dc8565b905098975050505050505050565b60008060009054906101000a900473ffffffffffffffffffffffffffffffffffffffff16905090565b611286612d57565b60005b600a805490508110156115aa5782600a82815481106112ab576112aa613882565b5b90600052602060002090600502016000015403611597576040518060400160405280600a83815481106112e1576112e0613882565b5b90600052602060002090600502016040518060a0016040529081600082015481526020016001820180546113149061372d565b80601f01602080910402602001604051908101604052809291908181526020018280546113409061372d565b801561138d5780601f106113625761010080835404028352916020019161138d565b820191906000526020600020905b81548152906001019060200180831161137057829003601f168201915b505050505081526020016002820180546113a69061372d565b80601f01602080910402602001604051908101604052809291908181526020018280546113d29061372d565b801561141f5780601f106113f45761010080835404028352916020019161141f565b820191906000526020600020905b81548152906001019060200180831161140257829003601f168201915b505050505081526020016003820180546114389061372d565b80601f01602080910402602001604051908101604052809291908181526020018280546114649061372d565b80156114b15780601f10611486576101008083540402835291602001916114b1565b820191906000526020600020905b81548152906001019060200180831161149457829003601f168201915b505050505081526020016004820180546114ca9061372d565b80601f01602080910402602001604051908101604052809291908181526020018280546114f69061372d565b80156115435780601f1061151857610100808354040283529160200191611543565b820191906000526020600020905b81548152906001019060200180831161152657829003601f168201915b5050505050815250508152602001600073ffffffffffffffffffffffffffffffffffffffff16611572866121e1565b73ffffffffffffffffffffffffffffffffffffffff16141515158152509150506115e6565b80806115a2906138e0565b915050611289565b506040517f08c379a00000000000000000000000000000000000000000000000000000000081526004016115dd90613e48565b60405180910390fd5b919050565b6060600280546115fa9061372d565b80601f01602080910402602001604051908101604052809291908181526020018280546116269061372d565b80156116735780601f1061164857610100808354040283529160200191611673565b820191906000526020600020905b81548152906001019060200180831161165657829003601f168201915b5050505050905090565b61168f611688611cf3565b838361237e565b5050565b6116a461169e611cf3565b83611db4565b6116e3576040517f08c379a00000000000000000000000000000000000000000000000000000000081526004016116da9061399a565b60405180910390fd5b6116ef848484846124ea565b50505050565b6116fd61223c565b600073ffffffffffffffffffffffffffffffffffffffff1661171e826121e1565b73ffffffffffffffffffffffffffffffffffffffff1614611774576040517f08c379a000000000000000000000000000000000000000000000000000000000815260040161176b90613eb4565b60405180910390fd5b600b6000828152602001908152602001600020829080600181540180825580915050600190039060005260206000200160009091909190916101000a81548173ffffffffffffffffffffffffffffffffffffffff021916908373ffffffffffffffffffffffffffffffffffffffff1602179055505050565b60606117f782611ca8565b6000611801612546565b90506000815111611821576040518060200160405280600081525061184c565b8061182b8461255d565b60405160200161183c929190613f10565b6040516020818303038152906040525b915050919050565b61185c61223c565b600073ffffffffffffffffffffffffffffffffffffffff1661187d826121e1565b73ffffffffffffffffffffffffffffffffffffffff16146118d3576040517f08c379a00000000000000000000000000000000000000000000000000000000081526004016118ca90613eb4565b60405180910390fd5b6000600c60008473ffffffffffffffffffffffffffffffffffffffff1673ffffffffffffffffffffffffffffffffffffffff1681526020019081526020016000205411611955576040517f08c379a000000000000000000000000000000000000000000000000000000000815260040161194c90613f80565b60405180910390fd5b6001600c60008473ffffffffffffffffffffffffffffffffffffffff1673ffffffffffffffffffffffffffffffffffffffff168152602001908152602001600020546119a19190613dc8565b600c60008473ffffffffffffffffffffffffffffffffffffffff1673ffffffffffffffffffffffffffffffffffffffff168152602001908152602001600020819055505050565b600954811015611a2d576040517f08c379a0000000000000000000000000000000000000000000000000000000008152600401611a2490613fec565b60405180910390fd5b60085481611a3b919061400c565b3414611a7c576040517f08c379a0000000000000000000000000000000000000000000000000000000008152600401611a739061409a565b60405180910390fd5b611abc6040518060400160405280600981526020017f70617943726564697400000000000000000000000000000000000000000000008152503383612142565b80600c60003373ffffffffffffffffffffffffffffffffffffffff1673ffffffffffffffffffffffffffffffffffffffff1681526020019081526020016000206000828254611b0b91906140ba565b9250508190555050565b611b1d61223c565b8060088190555050565b6000600660008473ffffffffffffffffffffffffffffffffffffffff1673ffffffffffffffffffffffffffffffffffffffff16815260200190815260200160002060008373ffffffffffffffffffffffffffffffffffffffff1673ffffffffffffffffffffffffffffffffffffffff16815260200190815260200160002060009054906101000a900460ff16905092915050565b611bc361223c565b600073ffffffffffffffffffffffffffffffffffffffff168173ffffffffffffffffffffffffffffffffffffffff1603611c32576040517f08c379a0000000000000000000000000000000000000000000000000000000008152600401611c2990614160565b60405180910390fd5b611c3b816122ba565b50565b60007f01ffc9a7000000000000000000000000000000000000000000000000000000007bffffffffffffffffffffffffffffffffffffffffffffffffffffffff1916827bffffffffffffffffffffffffffffffffffffffffffffffffffffffff1916149050919050565b611cb18161262b565b611cf0576040517f08c379a0000000000000000000000000000000000000000000000000000000008152600401611ce790613a06565b60405180910390fd5b50565b600033905090565b816005600083815260200190815260200160002060006101000a81548173ffffffffffffffffffffffffffffffffffffffff021916908373ffffffffffffffffffffffffffffffffffffffff160217905550808273ffffffffffffffffffffffffffffffffffffffff16611d6e83610e88565b73ffffffffffffffffffffffffffffffffffffffff167f8c5be1e5ebec7d5bd14f71427d1e84f3dd0314c0f7b2291e5b200ac8c7c3b92560405160405180910390a45050565b600080611dc083610e88565b90508073ffffffffffffffffffffffffffffffffffffffff168473ffffffffffffffffffffffffffffffffffffffff161480611e025750611e018185611b27565b5b80611e4057508373ffffffffffffffffffffffffffffffffffffffff16611e2884610809565b73ffffffffffffffffffffffffffffffffffffffff16145b91505092915050565b8273ffffffffffffffffffffffffffffffffffffffff16611e6982610e88565b73ffffffffffffffffffffffffffffffffffffffff1614611ebf576040517f08c379a0000000000000000000000000000000000000000000000000000000008152600401611eb6906141f2565b60405180910390fd5b600073ffffffffffffffffffffffffffffffffffffffff168273ffffffffffffffffffffffffffffffffffffffff1603611f2e576040517f08c379a0000000000000000000000000000000000000000000000000000000008152600401611f2590614284565b60405180910390fd5b611f3b838383600161266c565b8273ffffffffffffffffffffffffffffffffffffffff16611f5b82610e88565b73ffffffffffffffffffffffffffffffffffffffff1614611fb1576040517f08c379a0000000000000000000000000000000000000000000000000000000008152600401611fa8906141f2565b60405180910390fd5b6005600082815260200190815260200160002060006101000a81549073ffffffffffffffffffffffffffffffffffffffff02191690556001600460008573ffffffffffffffffffffffffffffffffffffffff1673ffffffffffffffffffffffffffffffffffffffff168152602001908152602001600020600082825403925050819055506001600460008473ffffffffffffffffffffffffffffffffffffffff1673ffffffffffffffffffffffffffffffffffffffff16815260200190815260200160002060008282540192505081905550816003600083815260200190815260200160002060006101000a81548173ffffffffffffffffffffffffffffffffffffffff021916908373ffffffffffffffffffffffffffffffffffffffff160217905550808273ffffffffffffffffffffffffffffffffffffffff168473ffffffffffffffffffffffffffffffffffffffff167fddf252ad1be2c89b69c2b068fc378daa952ba7f163c4a11628f55a4df523b3ef60405160405180910390a461213d8383836001612792565b505050565b6121dc83838360405160240161215a939291906142a4565b6040516020818303038152906040527f0d26b925000000000000000000000000000000000000000000000000000000007bffffffffffffffffffffffffffffffffffffffffffffffffffffffff19166020820180517bffffffffffffffffffffffffffffffffffffffffffffffffffffffff8381831617835250505050612798565b505050565b60006003600083815260200190815260200160002060009054906101000a900473ffffffffffffffffffffffffffffffffffffffff169050919050565b6122388282604051806020016040528060008152506127c1565b5050565b612244611cf3565b73ffffffffffffffffffffffffffffffffffffffff16612262611255565b73ffffffffffffffffffffffffffffffffffffffff16146122b8576040517f08c379a00000000000000000000000000000000000000000000000000000000081526004016122af9061432e565b60405180910390fd5b565b60008060009054906101000a900473ffffffffffffffffffffffffffffffffffffffff169050816000806101000a81548173ffffffffffffffffffffffffffffffffffffffff021916908373ffffffffffffffffffffffffffffffffffffffff1602179055508173ffffffffffffffffffffffffffffffffffffffff168173ffffffffffffffffffffffffffffffffffffffff167f8be0079c531659141344cd1fd0a4f28419497f9722a3daafe3b4186f6b6457e060405160405180910390a35050565b8173ffffffffffffffffffffffffffffffffffffffff168373ffffffffffffffffffffffffffffffffffffffff16036123ec576040517f08c379a00000000000000000000000000000000000000000000000000000000081526004016123e39061439a565b60405180910390fd5b80600660008573ffffffffffffffffffffffffffffffffffffffff1673ffffffffffffffffffffffffffffffffffffffff16815260200190815260200160002060008473ffffffffffffffffffffffffffffffffffffffff1673ffffffffffffffffffffffffffffffffffffffff16815260200190815260200160002060006101000a81548160ff0219169083151502179055508173ffffffffffffffffffffffffffffffffffffffff168373ffffffffffffffffffffffffffffffffffffffff167f17307eab39ab6107e8899845ad3d59bd9653f200f220920489ca2b5937696c31836040516124dd9190612e79565b60405180910390a3505050565b6124f5848484611e49565b6125018484848461281c565b612540576040517f08c379a00000000000000000000000000000000000000000000000000000000081526004016125379061442c565b60405180910390fd5b50505050565b606060405180602001604052806000815250905090565b60606000600161256c846129a3565b01905060008167ffffffffffffffff81111561258b5761258a613510565b5b6040519080825280601f01601f1916602001820160405280156125bd5781602001600182028036833780820191505090505b509050600082602001820190505b600115612620578080600190039150507f3031323334353637383961626364656600000000000000000000000000000000600a86061a8153600a85816126145761261361444c565b5b049450600085036125cb575b819350505050919050565b60008073ffffffffffffffffffffffffffffffffffffffff1661264d836121e1565b73ffffffffffffffffffffffffffffffffffffffff1614159050919050565b600181111561278c57600073ffffffffffffffffffffffffffffffffffffffff168473ffffffffffffffffffffffffffffffffffffffff16146127005780600460008673ffffffffffffffffffffffffffffffffffffffff1673ffffffffffffffffffffffffffffffffffffffff16815260200190815260200160002060008282546126f89190613dc8565b925050819055505b600073ffffffffffffffffffffffffffffffffffffffff168373ffffffffffffffffffffffffffffffffffffffff161461278b5780600460008573ffffffffffffffffffffffffffffffffffffffff1673ffffffffffffffffffffffffffffffffffffffff168152602001908152602001600020600082825461278391906140ba565b925050819055505b5b50505050565b50505050565b60008151905060006a636f6e736f6c652e6c6f679050602083016000808483855afa5050505050565b6127cb8383612af6565b6127d8600084848461281c565b612817576040517f08c379a000000000000000000000000000000000000000000000000000000000815260040161280e9061442c565b60405180910390fd5b505050565b600061283d8473ffffffffffffffffffffffffffffffffffffffff16612d13565b15612996578373ffffffffffffffffffffffffffffffffffffffff1663150b7a02612866611cf3565b8786866040518563ffffffff1660e01b815260040161288894939291906144d0565b6020604051808303816000875af19250505080156128c457506040513d601f19601f820116820180604052508101906128c19190614531565b60015b612946573d80600081146128f4576040519150601f19603f3d011682016040523d82523d6000602084013e6128f9565b606091505b50600081510361293e576040517f08c379a00000000000000000000000000000000000000000000000000000000081526004016129359061442c565b60405180910390fd5b805181602001fd5b63150b7a0260e01b7bffffffffffffffffffffffffffffffffffffffffffffffffffffffff1916817bffffffffffffffffffffffffffffffffffffffffffffffffffffffff19161491505061299b565b600190505b949350505050565b600080600090507a184f03e93ff9f4daa797ed6e38ed64bf6a1f0100000000000000008310612a01577a184f03e93ff9f4daa797ed6e38ed64bf6a1f01000000000000000083816129f7576129f661444c565b5b0492506040810190505b6d04ee2d6d415b85acef81000000008310612a3e576d04ee2d6d415b85acef81000000008381612a3457612a3361444c565b5b0492506020810190505b662386f26fc100008310612a6d57662386f26fc100008381612a6357612a6261444c565b5b0492506010810190505b6305f5e1008310612a96576305f5e1008381612a8c57612a8b61444c565b5b0492506008810190505b6127108310612abb576127108381612ab157612ab061444c565b5b0492506004810190505b60648310612ade5760648381612ad457612ad361444c565b5b0492506002810190505b600a8310612aed576001810190505b80915050919050565b600073ffffffffffffffffffffffffffffffffffffffff168273ffffffffffffffffffffffffffffffffffffffff1603612b65576040517f08c379a0000000000000000000000000000000000000000000000000000000008152600401612b5c906145aa565b60405180910390fd5b612b6e8161262b565b15612bae576040517f08c379a0000000000000000000000000000000000000000000000000000000008152600401612ba590614616565b60405180910390fd5b612bbc60008383600161266c565b612bc58161262b565b15612c05576040517f08c379a0000000000000000000000000000000000000000000000000000000008152600401612bfc90614616565b60405180910390fd5b6001600460008473ffffffffffffffffffffffffffffffffffffffff1673ffffffffffffffffffffffffffffffffffffffff16815260200190815260200160002060008282540192505081905550816003600083815260200190815260200160002060006101000a81548173ffffffffffffffffffffffffffffffffffffffff021916908373ffffffffffffffffffffffffffffffffffffffff160217905550808273ffffffffffffffffffffffffffffffffffffffff16600073ffffffffffffffffffffffffffffffffffffffff167fddf252ad1be2c89b69c2b068fc378daa952ba7f163c4a11628f55a4df523b3ef60405160405180910390a4612d0f600083836001612792565b5050565b6000808273ffffffffffffffffffffffffffffffffffffffff163b119050919050565b5080546000825590600052602060002090810190612d549190612d79565b50565b6040518060400160405280612d6a612d96565b81526020016000151581525090565b5b80821115612d92576000816000905550600101612d7a565b5090565b6040518060a0016040528060008152602001606081526020016060815260200160608152602001606081525090565b6000604051905090565b600080fd5b600080fd5b60007fffffffff0000000000000000000000000000000000000000000000000000000082169050919050565b612e0e81612dd9565b8114612e1957600080fd5b50565b600081359050612e2b81612e05565b92915050565b600060208284031215612e4757612e46612dcf565b5b6000612e5584828501612e1c565b91505092915050565b60008115159050919050565b612e7381612e5e565b82525050565b6000602082019050612e8e6000830184612e6a565b92915050565b600081519050919050565b600082825260208201905092915050565b60005b83811015612ece578082015181840152602081019050612eb3565b60008484015250505050565b6000601f19601f8301169050919050565b6000612ef682612e94565b612f008185612e9f565b9350612f10818560208601612eb0565b612f1981612eda565b840191505092915050565b60006020820190508181036000830152612f3e8184612eeb565b905092915050565b6000819050919050565b612f5981612f46565b8114612f6457600080fd5b50565b600081359050612f7681612f50565b92915050565b600060208284031215612f9257612f91612dcf565b5b6000612fa084828501612f67565b91505092915050565b600073ffffffffffffffffffffffffffffffffffffffff82169050919050565b6000612fd482612fa9565b9050919050565b612fe481612fc9565b82525050565b6000602082019050612fff6000830184612fdb565b92915050565b61300e81612fc9565b811461301957600080fd5b50565b60008135905061302b81613005565b92915050565b6000806040838503121561304857613047612dcf565b5b60006130568582860161301c565b925050602061306785828601612f67565b9150509250929050565b60008060006060848603121561308a57613089612dcf565b5b60006130988682870161301c565b93505060206130a98682870161301c565b92505060406130ba86828701612f67565b9150509250925092565b6130cd81612f46565b82525050565b60006020820190506130e860008301846130c4565b92915050565b600081519050919050565b600082825260208201905092915050565b6000819050602082019050919050565b61312381612f46565b82525050565b600082825260208201905092915050565b600061314582612e94565b61314f8185613129565b935061315f818560208601612eb0565b61316881612eda565b840191505092915050565b600060a08301600083015161318b600086018261311a565b50602083015184820360208601526131a3828261313a565b915050604083015184820360408601526131bd828261313a565b915050606083015184820360608601526131d7828261313a565b915050608083015184820360808601526131f1828261313a565b9150508091505092915050565b600061320a8383613173565b905092915050565b6000602082019050919050565b600061322a826130ee565b61323481856130f9565b9350836020820285016132468561310a565b8060005b85811015613282578484038952815161326385826131fe565b945061326e83613212565b925060208a0199505060018101905061324a565b50829750879550505050505092915050565b600060208201905081810360008301526132ae818461321f565b905092915050565b6000602082840312156132cc576132cb612dcf565b5b60006132da8482850161301c565b91505092915050565b600080fd5b600080fd5b600080fd5b60008083601f840112613308576133076132e3565b5b8235905067ffffffffffffffff811115613325576133246132e8565b5b602083019150836001820283011115613341576133406132ed565b5b9250929050565b6000806000806000806000806080898b03121561336857613367612dcf565b5b600089013567ffffffffffffffff81111561338657613385612dd4565b5b6133928b828c016132f2565b9850985050602089013567ffffffffffffffff8111156133b5576133b4612dd4565b5b6133c18b828c016132f2565b9650965050604089013567ffffffffffffffff8111156133e4576133e3612dd4565b5b6133f08b828c016132f2565b9450945050606089013567ffffffffffffffff81111561341357613412612dd4565b5b61341f8b828c016132f2565b92509250509295985092959890939650565b61343a81612e5e565b82525050565b6000604083016000830151848203600086015261345d8282613173565b91505060208301516134726020860182613431565b508091505092915050565b600060208201905081810360008301526134978184613440565b905092915050565b6134a881612e5e565b81146134b357600080fd5b50565b6000813590506134c58161349f565b92915050565b600080604083850312156134e2576134e1612dcf565b5b60006134f08582860161301c565b9250506020613501858286016134b6565b9150509250929050565b600080fd5b7f4e487b7100000000000000000000000000000000000000000000000000000000600052604160045260246000fd5b61354882612eda565b810181811067ffffffffffffffff8211171561356757613566613510565b5b80604052505050565b600061357a612dc5565b9050613586828261353f565b919050565b600067ffffffffffffffff8211156135a6576135a5613510565b5b6135af82612eda565b9050602081019050919050565b82818337600083830152505050565b60006135de6135d98461358b565b613570565b9050828152602081018484840111156135fa576135f961350b565b5b6136058482856135bc565b509392505050565b600082601f830112613622576136216132e3565b5b81356136328482602086016135cb565b91505092915050565b6000806000806080858703121561365557613654612dcf565b5b60006136638782880161301c565b94505060206136748782880161301c565b935050604061368587828801612f67565b925050606085013567ffffffffffffffff8111156136a6576136a5612dd4565b5b6136b28782880161360d565b91505092959194509250565b600080604083850312156136d5576136d4612dcf565b5b60006136e38582860161301c565b92505060206136f48582860161301c565b9150509250929050565b7f4e487b7100000000000000000000000000000000000000000000000000000000600052602260045260246000fd5b6000600282049050600182168061374557607f821691505b602082108103613758576137576136fe565b5b50919050565b7f4552433732313a20617070726f76616c20746f2063757272656e74206f776e6560008201527f7200000000000000000000000000000000000000000000000000000000000000602082015250565b60006137ba602183612e9f565b91506137c58261375e565b604082019050919050565b600060208201905081810360008301526137e9816137ad565b9050919050565b7f4552433732313a20617070726f76652063616c6c6572206973206e6f7420746f60008201527f6b656e206f776e6572206f7220617070726f76656420666f7220616c6c000000602082015250565b600061384c603d83612e9f565b9150613857826137f0565b604082019050919050565b6000602082019050818103600083015261387b8161383f565b9050919050565b7f4e487b7100000000000000000000000000000000000000000000000000000000600052603260045260246000fd5b7f4e487b7100000000000000000000000000000000000000000000000000000000600052601160045260246000fd5b60006138eb82612f46565b91507fffffffffffffffffffffffffffffffffffffffffffffffffffffffffffffffff820361391d5761391c6138b1565b5b600182019050919050565b7f4552433732313a2063616c6c6572206973206e6f7420746f6b656e206f776e6560008201527f72206f7220617070726f76656400000000000000000000000000000000000000602082015250565b6000613984602d83612e9f565b915061398f82613928565b604082019050919050565b600060208201905081810360008301526139b381613977565b9050919050565b7f4552433732313a20696e76616c696420746f6b656e2049440000000000000000600082015250565b60006139f0601883612e9f565b91506139fb826139ba565b602082019050919050565b60006020820190508181036000830152613a1f816139e3565b9050919050565b7f596f75206e65656420746f20736f6c766520746865206b617461206265666f7260008201527f6500000000000000000000000000000000000000000000000000000000000000602082015250565b6000613a82602183612e9f565b9150613a8d82613a26565b604082019050919050565b60006020820190508181036000830152613ab181613a75565b9050919050565b7f4552433732313a2061646472657373207a65726f206973206e6f74206120766160008201527f6c6964206f776e65720000000000000000000000000000000000000000000000602082015250565b6000613b14602983612e9f565b9150613b1f82613ab8565b604082019050919050565b60006020820190508181036000830152613b4381613b07565b9050919050565b60008190508160005260206000209050919050565b60006020601f8301049050919050565b600082821b905092915050565b600060088302613bac7fffffffffffffffffffffffffffffffffffffffffffffffffffffffffffffffff82613b6f565b613bb68683613b6f565b95508019841693508086168417925050509392505050565b6000819050919050565b6000613bf3613bee613be984612f46565b613bce565b612f46565b9050919050565b6000819050919050565b613c0d83613bd8565b613c21613c1982613bfa565b848454613b7c565b825550505050565b600090565b613c36613c29565b613c41818484613c04565b505050565b5b81811015613c6557613c5a600082613c2e565b600181019050613c47565b5050565b601f821115613caa57613c7b81613b4a565b613c8484613b5f565b81016020851015613c93578190505b613ca7613c9f85613b5f565b830182613c46565b50505b505050565b600082821c905092915050565b6000613ccd60001984600802613caf565b1980831691505092915050565b6000613ce68383613cbc565b9150826002028217905092915050565b613cff82612e94565b67ffffffffffffffff811115613d1857613d17613510565b5b613d22825461372d565b613d2d828285613c69565b600060209050601f831160018114613d605760008415613d4e578287015190505b613d588582613cda565b865550613dc0565b601f198416613d6e86613b4a565b60005b82811015613d9657848901518255600182019150602085019450602081019050613d71565b86831015613db35784890151613daf601f891682613cbc565b8355505b6001600288020188555050505b505050505050565b6000613dd382612f46565b9150613dde83612f46565b9250828203905081811115613df657613df56138b1565b5b92915050565b7f4e6f7420666f756e640000000000000000000000000000000000000000000000600082015250565b6000613e32600983612e9f565b9150613e3d82613dfc565b602082019050919050565b60006020820190508181036000830152613e6181613e25565b9050919050565b7f4b61746120616c7265616479206f776e65640000000000000000000000000000600082015250565b6000613e9e601283612e9f565b9150613ea982613e68565b602082019050919050565b60006020820190508181036000830152613ecd81613e91565b9050919050565b600081905092915050565b6000613eea82612e94565b613ef48185613ed4565b9350613f04818560208601612eb0565b80840191505092915050565b6000613f1c8285613edf565b9150613f288284613edf565b91508190509392505050565b7f4e6f7420656e6f75676820637265646974730000000000000000000000000000600082015250565b6000613f6a601283612e9f565b9150613f7582613f34565b602082019050919050565b60006020820190508181036000830152613f9981613f5d565b9050919050565b7f6d696e696d756e20747279206973203230000000000000000000000000000000600082015250565b6000613fd6601183612e9f565b9150613fe182613fa0565b602082019050919050565b6000602082019050818103600083015261400581613fc9565b9050919050565b600061401782612f46565b915061402283612f46565b925082820261403081612f46565b91508282048414831517614047576140466138b1565b5b5092915050565b7f796f75206e65656420746f207061792074686520726967687420616d6f756e74600082015250565b6000614084602083612e9f565b915061408f8261404e565b602082019050919050565b600060208201905081810360008301526140b381614077565b9050919050565b60006140c582612f46565b91506140d083612f46565b92508282019050808211156140e8576140e76138b1565b5b92915050565b7f4f776e61626c653a206e6577206f776e657220697320746865207a65726f206160008201527f6464726573730000000000000000000000000000000000000000000000000000602082015250565b600061414a602683612e9f565b9150614155826140ee565b604082019050919050565b600060208201905081810360008301526141798161413d565b9050919050565b7f4552433732313a207472616e736665722066726f6d20696e636f72726563742060008201527f6f776e6572000000000000000000000000000000000000000000000000000000602082015250565b60006141dc602583612e9f565b91506141e782614180565b604082019050919050565b6000602082019050818103600083015261420b816141cf565b9050919050565b7f4552433732313a207472616e7366657220746f20746865207a65726f2061646460008201527f7265737300000000000000000000000000000000000000000000000000000000602082015250565b600061426e602483612e9f565b915061427982614212565b604082019050919050565b6000602082019050818103600083015261429d81614261565b9050919050565b600060608201905081810360008301526142be8186612eeb565b90506142cd6020830185612fdb565b6142da60408301846130c4565b949350505050565b7f4f776e61626c653a2063616c6c6572206973206e6f7420746865206f776e6572600082015250565b6000614318602083612e9f565b9150614323826142e2565b602082019050919050565b600060208201905081810360008301526143478161430b565b9050919050565b7f4552433732313a20617070726f766520746f2063616c6c657200000000000000600082015250565b6000614384601983612e9f565b915061438f8261434e565b602082019050919050565b600060208201905081810360008301526143b381614377565b9050919050565b7f4552433732313a207472616e7366657220746f206e6f6e20455243373231526560008201527f63656976657220696d706c656d656e7465720000000000000000000000000000602082015250565b6000614416603283612e9f565b9150614421826143ba565b604082019050919050565b6000602082019050818103600083015261444581614409565b9050919050565b7f4e487b7100000000000000000000000000000000000000000000000000000000600052601260045260246000fd5b600081519050919050565b600082825260208201905092915050565b60006144a28261447b565b6144ac8185614486565b93506144bc818560208601612eb0565b6144c581612eda565b840191505092915050565b60006080820190506144e56000830187612fdb565b6144f26020830186612fdb565b6144ff60408301856130c4565b81810360608301526145118184614497565b905095945050505050565b60008151905061452b81612e05565b92915050565b60006020828403121561454757614546612dcf565b5b60006145558482850161451c565b91505092915050565b7f4552433732313a206d696e7420746f20746865207a65726f2061646472657373600082015250565b6000614594602083612e9f565b915061459f8261455e565b602082019050919050565b600060208201905081810360008301526145c381614587565b9050919050565b7f4552433732313a20746f6b656e20616c7265616479206d696e74656400000000600082015250565b6000614600601c83612e9f565b915061460b826145ca565b602082019050919050565b6000602082019050818103600083015261462f816145f3565b905091905056fea264697066735822122084dcc66d1579f9b6d7dd919c42a705fb15b3e5646c6e9624231de1cbb7074c1e64736f6c63430008110033",
  "linkReferences": {},
  "deployedLinkReferences": {}
}