{
  "_format": "hh-sol-artifact-1",
  "contractName": "KataCoins",
  "sourceName": "contracts/KataCoins.sol",
  "abi": [
    {
      "inputs": [],
      "stateMutability": "nonpayable",
      "type": "constructor"
    },
    {
      "anonymous": false,
      "inputs": [
        {
          "indexed": true,
          "internalType": "address",
          "name": "owner",
          "type": "address"
        },
        {
          "indexed": true,
          "internalType": "address",
          "name": "approved",
          "type": "address"
        },
        {
          "indexed": true,
          "internalType": "uint256",
          "name": "tokenId",
          "type": "uint256"
        }
      ],
      "name": "Approval",
      "type": "event"
    },
    {
      "anonymous": false,
      "inputs": [
        {
          "indexed": true,
          "internalType": "address",
          "name": "owner",
          "type": "address"
        },
        {
          "indexed": true,
          "internalType": "address",
          "name": "operator",
          "type": "address"
        },
        {
          "indexed": false,
          "internalType": "bool",
          "name": "approved",
          "type": "bool"
        }
      ],
      "name": "ApprovalForAll",
      "type": "event"
    },
    {
      "anonymous": false,
      "inputs": [
        {
          "indexed": true,
          "internalType": "address",
          "name": "previousOwner",
          "type": "address"
        },
        {
          "indexed": true,
          "internalType": "address",
          "name": "newOwner",
          "type": "address"
        }
      ],
      "name": "OwnershipTransferred",
      "type": "event"
    },
    {
      "anonymous": false,
      "inputs": [
        {
          "indexed": true,
          "internalType": "address",
          "name": "from",
          "type": "address"
        },
        {
          "indexed": true,
          "internalType": "address",
          "name": "to",
          "type": "address"
        },
        {
          "indexed": true,
          "internalType": "uint256",
          "name": "tokenId",
          "type": "uint256"
        }
      ],
      "name": "Transfer",
      "type": "event"
    },
    {
      "inputs": [
        {
          "internalType": "address",
          "name": "to",
          "type": "address"
        },
        {
          "internalType": "uint256",
          "name": "tokenId",
          "type": "uint256"
        }
      ],
      "name": "approve",
      "outputs": [],
      "stateMutability": "nonpayable",
      "type": "function"
    },
    {
      "inputs": [
        {
          "internalType": "address",
          "name": "owner",
          "type": "address"
        }
      ],
      "name": "balanceOf",
      "outputs": [
        {
          "internalType": "uint256",
          "name": "",
          "type": "uint256"
        }
      ],
      "stateMutability": "view",
      "type": "function"
    },
    {
      "inputs": [
        {
          "internalType": "uint256",
          "name": "newFee",
          "type": "uint256"
        }
      ],
      "name": "changeLevelUpFee",
      "outputs": [],
      "stateMutability": "nonpayable",
      "type": "function"
    },
    {
      "inputs": [
        {
          "internalType": "string",
          "name": "name",
          "type": "string"
        },
        {
          "internalType": "string",
          "name": "statement",
          "type": "string"
        },
        {
          "internalType": "string",
          "name": "functionDeclaration",
          "type": "string"
        },
        {
          "internalType": "string",
          "name": "test",
          "type": "string"
        }
      ],
      "name": "createKata",
      "outputs": [
        {
          "internalType": "uint256",
          "name": "",
          "type": "uint256"
        }
      ],
      "stateMutability": "nonpayable",
      "type": "function"
    },
    {
      "inputs": [
        {
          "internalType": "address",
          "name": "user",
          "type": "address"
        },
        {
          "internalType": "uint256",
          "name": "kataId",
          "type": "uint256"
        }
      ],
      "name": "executeKata",
      "outputs": [],
      "stateMutability": "nonpayable",
      "type": "function"
    },
    {
      "inputs": [],
      "name": "getAllKata",
      "outputs": [
        {
          "components": [
            {
              "components": [
                {
                  "internalType": "uint256",
                  "name": "id",
                  "type": "uint256"
                },
                {
                  "internalType": "string",
                  "name": "name",
                  "type": "string"
                },
                {
                  "internalType": "string",
                  "name": "statement",
                  "type": "string"
                },
                {
                  "internalType": "string",
                  "name": "functionDeclaration",
                  "type": "string"
                },
                {
                  "internalType": "string",
                  "name": "test",
                  "type": "string"
                }
              ],
              "internalType": "struct KataCoins.Kata",
              "name": "kata",
              "type": "tuple"
            },
            {
              "internalType": "bool",
              "name": "isOwned",
              "type": "bool"
            }
          ],
          "internalType": "struct KataCoins.Response[]",
          "name": "",
          "type": "tuple[]"
        }
      ],
      "stateMutability": "view",
      "type": "function"
    },
    {
      "inputs": [
        {
          "internalType": "uint256",
          "name": "tokenId",
          "type": "uint256"
        }
      ],
      "name": "getApproved",
      "outputs": [
        {
          "internalType": "address",
          "name": "",
          "type": "address"
        }
      ],
      "stateMutability": "view",
      "type": "function"
    },
    {
      "inputs": [],
      "name": "getCredit",
      "outputs": [
        {
          "internalType": "uint256",
          "name": "",
          "type": "uint256"
        }
      ],
      "stateMutability": "view",
      "type": "function"
    },
    {
      "inputs": [],
      "name": "getExecFee",
      "outputs": [
        {
          "internalType": "uint256",
          "name": "",
          "type": "uint256"
        }
      ],
      "stateMutability": "view",
      "type": "function"
    },
    {
      "inputs": [
        {
          "internalType": "uint256",
          "name": "kataId",
          "type": "uint256"
        }
      ],
      "name": "getKata",
      "outputs": [
        {
          "components": [
            {
              "components": [
                {
                  "internalType": "uint256",
                  "name": "id",
                  "type": "uint256"
                },
                {
                  "internalType": "string",
                  "name": "name",
                  "type": "string"
                },
                {
                  "internalType": "string",
                  "name": "statement",
                  "type": "string"
                },
                {
                  "internalType": "string",
                  "name": "functionDeclaration",
                  "type": "string"
                },
                {
                  "internalType": "string",
                  "name": "test",
                  "type": "string"
                }
              ],
              "internalType": "struct KataCoins.Kata",
              "name": "kata",
              "type": "tuple"
            },
            {
              "internalType": "bool",
              "name": "isOwned",
              "type": "bool"
            }
          ],
          "internalType": "struct KataCoins.Response",
          "name": "",
          "type": "tuple"
        }
      ],
      "stateMutability": "view",
      "type": "function"
    },
    {
      "inputs": [
        {
          "internalType": "address",
          "name": "user",
          "type": "address"
        },
        {
          "internalType": "uint256",
          "name": "kataID",
          "type": "uint256"
        }
      ],
      "name": "hasSolvedKata",
      "outputs": [
        {
          "internalType": "bool",
          "name": "",
          "type": "bool"
        }
      ],
      "stateMutability": "view",
      "type": "function"
    },
    {
      "inputs": [
        {
          "internalType": "address",
          "name": "owner",
          "type": "address"
        },
        {
          "internalType": "address",
          "name": "operator",
          "type": "address"
        }
      ],
      "name": "isApprovedForAll",
      "outputs": [
        {
          "internalType": "bool",
          "name": "",
          "type": "bool"
        }
      ],
      "stateMutability": "view",
      "type": "function"
    },
    {
      "inputs": [
        {
          "internalType": "uint256",
          "name": "tokenId",
          "type": "uint256"
        }
      ],
      "name": "mintKata",
      "outputs": [],
      "stateMutability": "nonpayable",
      "type": "function"
    },
    {
      "inputs": [],
      "name": "name",
      "outputs": [
        {
          "internalType": "string",
          "name": "",
          "type": "string"
        }
      ],
      "stateMutability": "view",
      "type": "function"
    },
    {
      "inputs": [],
      "name": "owner",
      "outputs": [
        {
          "internalType": "address",
          "name": "",
          "type": "address"
        }
      ],
      "stateMutability": "view",
      "type": "function"
    },
    {
      "inputs": [
        {
          "internalType": "uint256",
          "name": "tokenId",
          "type": "uint256"
        }
      ],
      "name": "ownerOf",
      "outputs": [
        {
          "internalType": "address",
          "name": "",
          "type": "address"
        }
      ],
      "stateMutability": "view",
      "type": "function"
    },
    {
      "inputs": [
        {
          "internalType": "uint256",
          "name": "nbTry",
          "type": "uint256"
        }
      ],
      "name": "payCredit",
      "outputs": [],
      "stateMutability": "payable",
      "type": "function"
    },
    {
      "inputs": [],
      "name": "renounceOwnership",
      "outputs": [],
      "stateMutability": "nonpayable",
      "type": "function"
    },
    {
      "inputs": [
        {
          "internalType": "address",
          "name": "from",
          "type": "address"
        },
        {
          "internalType": "address",
          "name": "to",
          "type": "address"
        },
        {
          "internalType": "uint256",
          "name": "tokenId",
          "type": "uint256"
        }
      ],
      "name": "safeTransferFrom",
      "outputs": [],
      "stateMutability": "nonpayable",
      "type": "function"
    },
    {
      "inputs": [
        {
          "internalType": "address",
          "name": "from",
          "type": "address"
        },
        {
          "internalType": "address",
          "name": "to",
          "type": "address"
        },
        {
          "internalType": "uint256",
          "name": "tokenId",
          "type": "uint256"
        },
        {
          "internalType": "bytes",
          "name": "data",
          "type": "bytes"
        }
      ],
      "name": "safeTransferFrom",
      "outputs": [],
      "stateMutability": "nonpayable",
      "type": "function"
    },
    {
      "inputs": [
        {
          "internalType": "address",
          "name": "operator",
          "type": "address"
        },
        {
          "internalType": "bool",
          "name": "approved",
          "type": "bool"
        }
      ],
      "name": "setApprovalForAll",
      "outputs": [],
      "stateMutability": "nonpayable",
      "type": "function"
    },
    {
      "inputs": [
        {
          "internalType": "address",
          "name": "user",
          "type": "address"
        },
        {
          "internalType": "uint256",
          "name": "kataID",
          "type": "uint256"
        }
      ],
      "name": "setHasSolvedKata",
      "outputs": [],
      "stateMutability": "nonpayable",
      "type": "function"
    },
    {
      "inputs": [
        {
          "internalType": "bytes4",
          "name": "interfaceId",
          "type": "bytes4"
        }
      ],
      "name": "supportsInterface",
      "outputs": [
        {
          "internalType": "bool",
          "name": "",
          "type": "bool"
        }
      ],
      "stateMutability": "view",
      "type": "function"
    },
    {
      "inputs": [],
      "name": "symbol",
      "outputs": [
        {
          "internalType": "string",
          "name": "",
          "type": "string"
        }
      ],
      "stateMutability": "view",
      "type": "function"
    },
    {
      "inputs": [
        {
          "internalType": "uint256",
          "name": "tokenId",
          "type": "uint256"
        }
      ],
      "name": "tokenURI",
      "outputs": [
        {
          "internalType": "string",
          "name": "",
          "type": "string"
        }
      ],
      "stateMutability": "view",
      "type": "function"
    },
    {
      "inputs": [
        {
          "internalType": "address",
          "name": "from",
          "type": "address"
        },
        {
          "internalType": "address",
          "name": "to",
          "type": "address"
        },
        {
          "internalType": "uint256",
          "name": "tokenId",
          "type": "uint256"
        }
      ],
      "name": "transferFrom",
      "outputs": [],
      "stateMutability": "nonpayable",
      "type": "function"
    },
    {
      "inputs": [
        {
          "internalType": "address",
          "name": "newOwner",
          "type": "address"
        }
      ],
      "name": "transferOwnership",
      "outputs": [],
      "stateMutability": "nonpayable",
      "type": "function"
    }
  ],
  "bytecode": "0x6080604052600060075566038d7ea4c6800060085560146009553480156200002657600080fd5b506040518060400160405280600981526020017f4b617461436f696e7300000000000000000000000000000000000000000000008152506040518060400160405280600381526020017f4b54430000000000000000000000000000000000000000000000000000000000815250620000b3620000a7620000df60201b60201c565b620000e760201b60201c565b8160019081620000c4919062000425565b508060029081620000d6919062000425565b5050506200050c565b600033905090565b60008060009054906101000a900473ffffffffffffffffffffffffffffffffffffffff169050816000806101000a81548173ffffffffffffffffffffffffffffffffffffffff021916908373ffffffffffffffffffffffffffffffffffffffff1602179055508173ffffffffffffffffffffffffffffffffffffffff168173ffffffffffffffffffffffffffffffffffffffff167f8be0079c531659141344cd1fd0a4f28419497f9722a3daafe3b4186f6b6457e060405160405180910390a35050565b600081519050919050565b7f4e487b7100000000000000000000000000000000000000000000000000000000600052604160045260246000fd5b7f4e487b7100000000000000000000000000000000000000000000000000000000600052602260045260246000fd5b600060028204905060018216806200022d57607f821691505b602082108103620002435762000242620001e5565b5b50919050565b60008190508160005260206000209050919050565b60006020601f8301049050919050565b600082821b905092915050565b600060088302620002ad7fffffffffffffffffffffffffffffffffffffffffffffffffffffffffffffffff826200026e565b620002b986836200026e565b95508019841693508086168417925050509392505050565b6000819050919050565b6000819050919050565b60006200030662000300620002fa84620002d1565b620002db565b620002d1565b9050919050565b6000819050919050565b6200032283620002e5565b6200033a62000331826200030d565b8484546200027b565b825550505050565b600090565b6200035162000342565b6200035e81848462000317565b505050565b5b8181101562000386576200037a60008262000347565b60018101905062000364565b5050565b601f821115620003d5576200039f8162000249565b620003aa846200025e565b81016020851015620003ba578190505b620003d2620003c9856200025e565b83018262000363565b50505b505050565b600082821c905092915050565b6000620003fa60001984600802620003da565b1980831691505092915050565b6000620004158383620003e7565b9150826002028217905092915050565b6200043082620001ab565b67ffffffffffffffff8111156200044c576200044b620001b6565b5b62000458825462000214565b620004658282856200038a565b600060209050601f8311600181146200049d576000841562000488578287015190505b62000494858262000407565b86555062000504565b601f198416620004ad8662000249565b60005b82811015620004d757848901518255600182019150602085019450602081019050620004b0565b86831015620004f75784890151620004f3601f891682620003e7565b8355505b6001600288020188555050505b505050505050565b614777806200051c6000396000f3fe60806040526004361061019c5760003560e01c8063715018a6116100ec578063be9c3cec1161008a578063d62605d511610064578063d62605d5146105ea578063e2f805cd14610606578063e985e9c51461062f578063f2fde38b1461066c5761019c565b8063be9c3cec1461055b578063c87b56dd14610584578063d578f0ed146105c15761019c565b806394d18e66116100c657806394d18e66146104a157806395d89b41146104de578063a22cb46514610509578063b88d4fde146105325761019c565b8063715018a614610422578063858a3746146104395780638da5cb5b146104765761019c565b806342842e0e1161015957806359296e7b1161013357806359296e7b146103545780636352211e1461037f5780636992ba8d146103bc57806370a08231146103e55761019c565b806342842e0e146102d55780634d3ffd97146102fe578063555e0673146103295761019c565b806301ffc9a7146101a157806306fdde03146101de578063081812fc14610209578063095ea7b3146102465780631b52234c1461026f57806323b872dd146102ac575b600080fd5b3480156101ad57600080fd5b506101c860048036038101906101c39190612eff565b610695565b6040516101d59190612f47565b60405180910390f35b3480156101ea57600080fd5b506101f3610777565b6040516102009190612ff2565b60405180910390f35b34801561021557600080fd5b50610230600480360381019061022b919061304a565b610809565b60405161023d91906130b8565b60405180910390f35b34801561025257600080fd5b5061026d600480360381019061026891906130ff565b61084f565b005b34801561027b57600080fd5b50610296600480360381019061029191906130ff565b610966565b6040516102a39190612f47565b60405180910390f35b3480156102b857600080fd5b506102d360048036038101906102ce919061313f565b610a87565b005b3480156102e157600080fd5b506102fc60048036038101906102f7919061313f565b610ae7565b005b34801561030a57600080fd5b50610313610b07565b60405161032091906131a1565b60405180910390f35b34801561033557600080fd5b5061033e610b11565b60405161034b91906133ae565b60405180910390f35b34801561036057600080fd5b50610369610e90565b60405161037691906131a1565b60405180910390f35b34801561038b57600080fd5b506103a660048036038101906103a1919061304a565b610f56565b6040516103b391906130b8565b60405180910390f35b3480156103c857600080fd5b506103e360048036038101906103de919061304a565b610fdc565b005b3480156103f157600080fd5b5061040c600480360381019061040791906133d0565b611051565b60405161041991906131a1565b60405180910390f35b34801561042e57600080fd5b50610437611108565b005b34801561044557600080fd5b50610460600480360381019061045b9190613462565b61111c565b60405161046d91906131a1565b60405180910390f35b34801561048257600080fd5b5061048b611323565b60405161049891906130b8565b60405180910390f35b3480156104ad57600080fd5b506104c860048036038101906104c3919061304a565b61134c565b6040516104d59190613588565b60405180910390f35b3480156104ea57600080fd5b506104f36116b9565b6040516105009190612ff2565b60405180910390f35b34801561051557600080fd5b50610530600480360381019061052b91906135d6565b61174b565b005b34801561053e57600080fd5b5061055960048036038101906105549190613746565b611761565b005b34801561056757600080fd5b50610582600480360381019061057d91906130ff565b6117c3565b005b34801561059057600080fd5b506105ab60048036038101906105a6919061304a565b6118ba565b6040516105b89190612ff2565b60405180910390f35b3480156105cd57600080fd5b506105e860048036038101906105e391906130ff565b611922565b005b61060460048036038101906105ff919061304a565b611ab6565b005b34801561061257600080fd5b5061062d6004803603810190610628919061304a565b611be3565b005b34801561063b57600080fd5b50610656600480360381019061065191906137c9565b611bf5565b6040516106639190612f47565b60405180910390f35b34801561067857600080fd5b50610693600480360381019061068e91906133d0565b611c89565b005b60007f80ac58cd000000000000000000000000000000000000000000000000000000007bffffffffffffffffffffffffffffffffffffffffffffffffffffffff1916827bffffffffffffffffffffffffffffffffffffffffffffffffffffffff1916148061076057507f5b5e139f000000000000000000000000000000000000000000000000000000007bffffffffffffffffffffffffffffffffffffffffffffffffffffffff1916827bffffffffffffffffffffffffffffffffffffffffffffffffffffffff1916145b80610770575061076f82611d0c565b5b9050919050565b60606001805461078690613838565b80601f01602080910402602001604051908101604052809291908181526020018280546107b290613838565b80156107ff5780601f106107d4576101008083540402835291602001916107ff565b820191906000526020600020905b8154815290600101906020018083116107e257829003601f168201915b5050505050905090565b600061081482611d76565b6005600083815260200190815260200160002060009054906101000a900473ffffffffffffffffffffffffffffffffffffffff169050919050565b600061085a82610f56565b90508073ffffffffffffffffffffffffffffffffffffffff168373ffffffffffffffffffffffffffffffffffffffff16036108ca576040517f08c379a00000000000000000000000000000000000000000000000000000000081526004016108c1906138db565b60405180910390fd5b8073ffffffffffffffffffffffffffffffffffffffff166108e9611dc1565b73ffffffffffffffffffffffffffffffffffffffff161480610918575061091781610912611dc1565b611bf5565b5b610957576040517f08c379a000000000000000000000000000000000000000000000000000000000815260040161094e9061396d565b60405180910390fd5b6109618383611dc9565b505050565b600080600b60008481526020019081526020016000208054806020026020016040519081016040528092919081815260200182805480156109fc57602002820191906000526020600020905b8160009054906101000a900473ffffffffffffffffffffffffffffffffffffffff1673ffffffffffffffffffffffffffffffffffffffff16815260200190600101908083116109b2575b5050505050905060005b8151811015610a7a578473ffffffffffffffffffffffffffffffffffffffff16828281518110610a3957610a3861398d565b5b602002602001015173ffffffffffffffffffffffffffffffffffffffff1603610a6757600192505050610a81565b8080610a72906139eb565b915050610a06565b5060009150505b92915050565b610a98610a92611dc1565b82611e82565b610ad7576040517f08c379a0000000000000000000000000000000000000000000000000000000008152600401610ace90613aa5565b60405180910390fd5b610ae2838383611f17565b505050565b610b0283838360405180602001604052806000815250611761565b505050565b6000600854905090565b60606000600a8054905067ffffffffffffffff811115610b3457610b3361361b565b5b604051908082528060200260200182016040528015610b6d57816020015b610b5a612e04565b815260200190600190039081610b525790505b50905060005b600a80549050811015610e88576000600a8281548110610b9657610b9561398d565b5b90600052602060002090600502016040518060a001604052908160008201548152602001600182018054610bc990613838565b80601f0160208091040260200160405190810160405280929190818152602001828054610bf590613838565b8015610c425780601f10610c1757610100808354040283529160200191610c42565b820191906000526020600020905b815481529060010190602001808311610c2557829003601f168201915b50505050508152602001600282018054610c5b90613838565b80601f0160208091040260200160405190810160405280929190818152602001828054610c8790613838565b8015610cd45780601f10610ca957610100808354040283529160200191610cd4565b820191906000526020600020905b815481529060010190602001808311610cb757829003601f168201915b50505050508152602001600382018054610ced90613838565b80601f0160208091040260200160405190810160405280929190818152602001828054610d1990613838565b8015610d665780601f10610d3b57610100808354040283529160200191610d66565b820191906000526020600020905b815481529060010190602001808311610d4957829003601f168201915b50505050508152602001600482018054610d7f90613838565b80601f0160208091040260200160405190810160405280929190818152602001828054610dab90613838565b8015610df85780601f10610dcd57610100808354040283529160200191610df8565b820191906000526020600020905b815481529060010190602001808311610ddb57829003601f168201915b50505050508152505090506040518060400160405280828152602001600073ffffffffffffffffffffffffffffffffffffffff16610e398460000151612210565b73ffffffffffffffffffffffffffffffffffffffff1614151515815250838381518110610e6957610e6861398d565b5b6020026020010181905250508080610e80906139eb565b915050610b73565b508091505090565b6000610f116040518060400160405280600981526020017f676574437265646974000000000000000000000000000000000000000000000081525033600c60003373ffffffffffffffffffffffffffffffffffffffff1673ffffffffffffffffffffffffffffffffffffffff1681526020019081526020016000205461224d565b600c60003373ffffffffffffffffffffffffffffffffffffffff1673ffffffffffffffffffffffffffffffffffffffff16815260200190815260200160002054905090565b600080610f6283612210565b9050600073ffffffffffffffffffffffffffffffffffffffff168173ffffffffffffffffffffffffffffffffffffffff1603610fd3576040517f08c379a0000000000000000000000000000000000000000000000000000000008152600401610fca90613b11565b60405180910390fd5b80915050919050565b610fe63382610966565b611025576040517f08c379a000000000000000000000000000000000000000000000000000000000815260040161101c90613ba3565b60405180910390fd5b600b600082815260200190815260200160002060006110449190612e26565b61104e33826122ec565b50565b60008073ffffffffffffffffffffffffffffffffffffffff168273ffffffffffffffffffffffffffffffffffffffff16036110c1576040517f08c379a00000000000000000000000000000000000000000000000000000000081526004016110b890613c35565b60405180910390fd5b600460008373ffffffffffffffffffffffffffffffffffffffff1673ffffffffffffffffffffffffffffffffffffffff168152602001908152602001600020549050919050565b61111061230a565b61111a6000612388565b565b600061112661230a565b600a6040518060a0016040528060075481526020018b8b8080601f016020809104026020016040519081016040528093929190818152602001838380828437600081840152601f19601f82011690508083019250505050505050815260200189898080601f016020809104026020016040519081016040528093929190818152602001838380828437600081840152601f19601f82011690508083019250505050505050815260200187878080601f016020809104026020016040519081016040528093929190818152602001838380828437600081840152601f19601f82011690508083019250505050505050815260200185858080601f016020809104026020016040519081016040528093929190818152602001838380828437600081840152601f19601f8201169050808301925050505050505081525090806001815401808255809150506001900390600052602060002090600502016000909190919091506000820151816000015560208201518160010190816112a99190613e01565b5060408201518160020190816112bf9190613e01565b5060608201518160030190816112d59190613e01565b5060808201518160040190816112eb9190613e01565b50505060076000815480929190611301906139eb565b919050555060016007546113159190613ed3565b905098975050505050505050565b60008060009054906101000a900473ffffffffffffffffffffffffffffffffffffffff16905090565b611354612e04565b60005b600a805490508110156116785782600a82815481106113795761137861398d565b5b90600052602060002090600502016000015403611665576040518060400160405280600a83815481106113af576113ae61398d565b5b90600052602060002090600502016040518060a0016040529081600082015481526020016001820180546113e290613838565b80601f016020809104026020016040519081016040528092919081815260200182805461140e90613838565b801561145b5780601f106114305761010080835404028352916020019161145b565b820191906000526020600020905b81548152906001019060200180831161143e57829003601f168201915b5050505050815260200160028201805461147490613838565b80601f01602080910402602001604051908101604052809291908181526020018280546114a090613838565b80156114ed5780601f106114c2576101008083540402835291602001916114ed565b820191906000526020600020905b8154815290600101906020018083116114d057829003601f168201915b5050505050815260200160038201805461150690613838565b80601f016020809104026020016040519081016040528092919081815260200182805461153290613838565b801561157f5780601f106115545761010080835404028352916020019161157f565b820191906000526020600020905b81548152906001019060200180831161156257829003601f168201915b5050505050815260200160048201805461159890613838565b80601f01602080910402602001604051908101604052809291908181526020018280546115c490613838565b80156116115780601f106115e657610100808354040283529160200191611611565b820191906000526020600020905b8154815290600101906020018083116115f457829003601f168201915b5050505050815250508152602001600073ffffffffffffffffffffffffffffffffffffffff1661164086612210565b73ffffffffffffffffffffffffffffffffffffffff16141515158152509150506116b4565b8080611670906139eb565b915050611357565b506040517f08c379a00000000000000000000000000000000000000000000000000000000081526004016116ab90613f53565b60405180910390fd5b919050565b6060600280546116c890613838565b80601f01602080910402602001604051908101604052809291908181526020018280546116f490613838565b80156117415780601f1061171657610100808354040283529160200191611741565b820191906000526020600020905b81548152906001019060200180831161172457829003601f168201915b5050505050905090565b61175d611756611dc1565b838361244c565b5050565b61177261176c611dc1565b83611e82565b6117b1576040517f08c379a00000000000000000000000000000000000000000000000000000000081526004016117a890613aa5565b60405180910390fd5b6117bd848484846125b8565b50505050565b6117cb61230a565b600073ffffffffffffffffffffffffffffffffffffffff166117ec82612210565b73ffffffffffffffffffffffffffffffffffffffff1614611842576040517f08c379a000000000000000000000000000000000000000000000000000000000815260040161183990613fbf565b60405180910390fd5b600b6000828152602001908152602001600020829080600181540180825580915050600190039060005260206000200160009091909190916101000a81548173ffffffffffffffffffffffffffffffffffffffff021916908373ffffffffffffffffffffffffffffffffffffffff1602179055505050565b60606118c582611d76565b60006118cf612614565b905060008151116118ef576040518060200160405280600081525061191a565b806118f98461262b565b60405160200161190a92919061401b565b6040516020818303038152906040525b915050919050565b61192a61230a565b600073ffffffffffffffffffffffffffffffffffffffff1661194b82612210565b73ffffffffffffffffffffffffffffffffffffffff16146119a1576040517f08c379a000000000000000000000000000000000000000000000000000000000815260040161199890613fbf565b60405180910390fd5b6000600c60008473ffffffffffffffffffffffffffffffffffffffff1673ffffffffffffffffffffffffffffffffffffffff1681526020019081526020016000205411611a23576040517f08c379a0000000000000000000000000000000000000000000000000000000008152600401611a1a9061408b565b60405180910390fd5b6001600c60008473ffffffffffffffffffffffffffffffffffffffff1673ffffffffffffffffffffffffffffffffffffffff16815260200190815260200160002054611a6f9190613ed3565b600c60008473ffffffffffffffffffffffffffffffffffffffff1673ffffffffffffffffffffffffffffffffffffffff168152602001908152602001600020819055505050565b600954811015611afb576040517f08c379a0000000000000000000000000000000000000000000000000000000008152600401611af2906140f7565b60405180910390fd5b60085481611b099190614117565b3414611b4a576040517f08c379a0000000000000000000000000000000000000000000000000000000008152600401611b41906141a5565b60405180910390fd5b611b8a6040518060400160405280600981526020017f7061794372656469740000000000000000000000000000000000000000000000815250338361224d565b80600c60003373ffffffffffffffffffffffffffffffffffffffff1673ffffffffffffffffffffffffffffffffffffffff1681526020019081526020016000206000828254611bd991906141c5565b9250508190555050565b611beb61230a565b8060088190555050565b6000600660008473ffffffffffffffffffffffffffffffffffffffff1673ffffffffffffffffffffffffffffffffffffffff16815260200190815260200160002060008373ffffffffffffffffffffffffffffffffffffffff1673ffffffffffffffffffffffffffffffffffffffff16815260200190815260200160002060009054906101000a900460ff16905092915050565b611c9161230a565b600073ffffffffffffffffffffffffffffffffffffffff168173ffffffffffffffffffffffffffffffffffffffff1603611d00576040517f08c379a0000000000000000000000000000000000000000000000000000000008152600401611cf79061426b565b60405180910390fd5b611d0981612388565b50565b60007f01ffc9a7000000000000000000000000000000000000000000000000000000007bffffffffffffffffffffffffffffffffffffffffffffffffffffffff1916827bffffffffffffffffffffffffffffffffffffffffffffffffffffffff1916149050919050565b611d7f816126f9565b611dbe576040517f08c379a0000000000000000000000000000000000000000000000000000000008152600401611db590613b11565b60405180910390fd5b50565b600033905090565b816005600083815260200190815260200160002060006101000a81548173ffffffffffffffffffffffffffffffffffffffff021916908373ffffffffffffffffffffffffffffffffffffffff160217905550808273ffffffffffffffffffffffffffffffffffffffff16611e3c83610f56565b73ffffffffffffffffffffffffffffffffffffffff167f8c5be1e5ebec7d5bd14f71427d1e84f3dd0314c0f7b2291e5b200ac8c7c3b92560405160405180910390a45050565b600080611e8e83610f56565b90508073ffffffffffffffffffffffffffffffffffffffff168473ffffffffffffffffffffffffffffffffffffffff161480611ed05750611ecf8185611bf5565b5b80611f0e57508373ffffffffffffffffffffffffffffffffffffffff16611ef684610809565b73ffffffffffffffffffffffffffffffffffffffff16145b91505092915050565b8273ffffffffffffffffffffffffffffffffffffffff16611f3782610f56565b73ffffffffffffffffffffffffffffffffffffffff1614611f8d576040517f08c379a0000000000000000000000000000000000000000000000000000000008152600401611f84906142fd565b60405180910390fd5b600073ffffffffffffffffffffffffffffffffffffffff168273ffffffffffffffffffffffffffffffffffffffff1603611ffc576040517f08c379a0000000000000000000000000000000000000000000000000000000008152600401611ff39061438f565b60405180910390fd5b612009838383600161273a565b8273ffffffffffffffffffffffffffffffffffffffff1661202982610f56565b73ffffffffffffffffffffffffffffffffffffffff161461207f576040517f08c379a0000000000000000000000000000000000000000000000000000000008152600401612076906142fd565b60405180910390fd5b6005600082815260200190815260200160002060006101000a81549073ffffffffffffffffffffffffffffffffffffffff02191690556001600460008573ffffffffffffffffffffffffffffffffffffffff1673ffffffffffffffffffffffffffffffffffffffff168152602001908152602001600020600082825403925050819055506001600460008473ffffffffffffffffffffffffffffffffffffffff1673ffffffffffffffffffffffffffffffffffffffff16815260200190815260200160002060008282540192505081905550816003600083815260200190815260200160002060006101000a81548173ffffffffffffffffffffffffffffffffffffffff021916908373ffffffffffffffffffffffffffffffffffffffff160217905550808273ffffffffffffffffffffffffffffffffffffffff168473ffffffffffffffffffffffffffffffffffffffff167fddf252ad1be2c89b69c2b068fc378daa952ba7f163c4a11628f55a4df523b3ef60405160405180910390a461220b8383836001612860565b505050565b60006003600083815260200190815260200160002060009054906101000a900473ffffffffffffffffffffffffffffffffffffffff169050919050565b6122e7838383604051602401612265939291906143af565b6040516020818303038152906040527f0d26b925000000000000000000000000000000000000000000000000000000007bffffffffffffffffffffffffffffffffffffffffffffffffffffffff19166020820180517bffffffffffffffffffffffffffffffffffffffffffffffffffffffff8381831617835250505050612866565b505050565b61230682826040518060200160405280600081525061288f565b5050565b612312611dc1565b73ffffffffffffffffffffffffffffffffffffffff16612330611323565b73ffffffffffffffffffffffffffffffffffffffff1614612386576040517f08c379a000000000000000000000000000000000000000000000000000000000815260040161237d90614439565b60405180910390fd5b565b60008060009054906101000a900473ffffffffffffffffffffffffffffffffffffffff169050816000806101000a81548173ffffffffffffffffffffffffffffffffffffffff021916908373ffffffffffffffffffffffffffffffffffffffff1602179055508173ffffffffffffffffffffffffffffffffffffffff168173ffffffffffffffffffffffffffffffffffffffff167f8be0079c531659141344cd1fd0a4f28419497f9722a3daafe3b4186f6b6457e060405160405180910390a35050565b8173ffffffffffffffffffffffffffffffffffffffff168373ffffffffffffffffffffffffffffffffffffffff16036124ba576040517f08c379a00000000000000000000000000000000000000000000000000000000081526004016124b1906144a5565b60405180910390fd5b80600660008573ffffffffffffffffffffffffffffffffffffffff1673ffffffffffffffffffffffffffffffffffffffff16815260200190815260200160002060008473ffffffffffffffffffffffffffffffffffffffff1673ffffffffffffffffffffffffffffffffffffffff16815260200190815260200160002060006101000a81548160ff0219169083151502179055508173ffffffffffffffffffffffffffffffffffffffff168373ffffffffffffffffffffffffffffffffffffffff167f17307eab39ab6107e8899845ad3d59bd9653f200f220920489ca2b5937696c31836040516125ab9190612f47565b60405180910390a3505050565b6125c3848484611f17565b6125cf848484846128ea565b61260e576040517f08c379a000000000000000000000000000000000000000000000000000000000815260040161260590614537565b60405180910390fd5b50505050565b606060405180602001604052806000815250905090565b60606000600161263a84612a71565b01905060008167ffffffffffffffff8111156126595761265861361b565b5b6040519080825280601f01601f19166020018201604052801561268b5781602001600182028036833780820191505090505b509050600082602001820190505b6001156126ee578080600190039150507f3031323334353637383961626364656600000000000000000000000000000000600a86061a8153600a85816126e2576126e1614557565b5b04945060008503612699575b819350505050919050565b60008073ffffffffffffffffffffffffffffffffffffffff1661271b83612210565b73ffffffffffffffffffffffffffffffffffffffff1614159050919050565b600181111561285a57600073ffffffffffffffffffffffffffffffffffffffff168473ffffffffffffffffffffffffffffffffffffffff16146127ce5780600460008673ffffffffffffffffffffffffffffffffffffffff1673ffffffffffffffffffffffffffffffffffffffff16815260200190815260200160002060008282546127c69190613ed3565b925050819055505b600073ffffffffffffffffffffffffffffffffffffffff168373ffffffffffffffffffffffffffffffffffffffff16146128595780600460008573ffffffffffffffffffffffffffffffffffffffff1673ffffffffffffffffffffffffffffffffffffffff168152602001908152602001600020600082825461285191906141c5565b925050819055505b5b50505050565b50505050565b60008151905060006a636f6e736f6c652e6c6f679050602083016000808483855afa5050505050565b6128998383612bc4565b6128a660008484846128ea565b6128e5576040517f08c379a00000000000000000000000000000000000000000000000000000000081526004016128dc90614537565b60405180910390fd5b505050565b600061290b8473ffffffffffffffffffffffffffffffffffffffff16612de1565b15612a64578373ffffffffffffffffffffffffffffffffffffffff1663150b7a02612934611dc1565b8786866040518563ffffffff1660e01b815260040161295694939291906145db565b6020604051808303816000875af192505050801561299257506040513d601f19601f8201168201806040525081019061298f919061463c565b60015b612a14573d80600081146129c2576040519150601f19603f3d011682016040523d82523d6000602084013e6129c7565b606091505b506000815103612a0c576040517f08c379a0000000000000000000000000000000000000000000000000000000008152600401612a0390614537565b60405180910390fd5b805181602001fd5b63150b7a0260e01b7bffffffffffffffffffffffffffffffffffffffffffffffffffffffff1916817bffffffffffffffffffffffffffffffffffffffffffffffffffffffff191614915050612a69565b600190505b949350505050565b600080600090507a184f03e93ff9f4daa797ed6e38ed64bf6a1f0100000000000000008310612acf577a184f03e93ff9f4daa797ed6e38ed64bf6a1f0100000000000000008381612ac557612ac4614557565b5b0492506040810190505b6d04ee2d6d415b85acef81000000008310612b0c576d04ee2d6d415b85acef81000000008381612b0257612b01614557565b5b0492506020810190505b662386f26fc100008310612b3b57662386f26fc100008381612b3157612b30614557565b5b0492506010810190505b6305f5e1008310612b64576305f5e1008381612b5a57612b59614557565b5b0492506008810190505b6127108310612b89576127108381612b7f57612b7e614557565b5b0492506004810190505b60648310612bac5760648381612ba257612ba1614557565b5b0492506002810190505b600a8310612bbb576001810190505b80915050919050565b600073ffffffffffffffffffffffffffffffffffffffff168273ffffffffffffffffffffffffffffffffffffffff1603612c33576040517f08c379a0000000000000000000000000000000000000000000000000000000008152600401612c2a906146b5565b60405180910390fd5b612c3c816126f9565b15612c7c576040517f08c379a0000000000000000000000000000000000000000000000000000000008152600401612c7390614721565b60405180910390fd5b612c8a60008383600161273a565b612c93816126f9565b15612cd3576040517f08c379a0000000000000000000000000000000000000000000000000000000008152600401612cca90614721565b60405180910390fd5b6001600460008473ffffffffffffffffffffffffffffffffffffffff1673ffffffffffffffffffffffffffffffffffffffff16815260200190815260200160002060008282540192505081905550816003600083815260200190815260200160002060006101000a81548173ffffffffffffffffffffffffffffffffffffffff021916908373ffffffffffffffffffffffffffffffffffffffff160217905550808273ffffffffffffffffffffffffffffffffffffffff16600073ffffffffffffffffffffffffffffffffffffffff167fddf252ad1be2c89b69c2b068fc378daa952ba7f163c4a11628f55a4df523b3ef60405160405180910390a4612ddd600083836001612860565b5050565b6000808273ffffffffffffffffffffffffffffffffffffffff163b119050919050565b6040518060400160405280612e17612e47565b81526020016000151581525090565b5080546000825590600052602060002090810190612e449190612e76565b50565b6040518060a0016040528060008152602001606081526020016060815260200160608152602001606081525090565b5b80821115612e8f576000816000905550600101612e77565b5090565b6000604051905090565b600080fd5b600080fd5b60007fffffffff0000000000000000000000000000000000000000000000000000000082169050919050565b612edc81612ea7565b8114612ee757600080fd5b50565b600081359050612ef981612ed3565b92915050565b600060208284031215612f1557612f14612e9d565b5b6000612f2384828501612eea565b91505092915050565b60008115159050919050565b612f4181612f2c565b82525050565b6000602082019050612f5c6000830184612f38565b92915050565b600081519050919050565b600082825260208201905092915050565b60005b83811015612f9c578082015181840152602081019050612f81565b60008484015250505050565b6000601f19601f8301169050919050565b6000612fc482612f62565b612fce8185612f6d565b9350612fde818560208601612f7e565b612fe781612fa8565b840191505092915050565b6000602082019050818103600083015261300c8184612fb9565b905092915050565b6000819050919050565b61302781613014565b811461303257600080fd5b50565b6000813590506130448161301e565b92915050565b6000602082840312156130605761305f612e9d565b5b600061306e84828501613035565b91505092915050565b600073ffffffffffffffffffffffffffffffffffffffff82169050919050565b60006130a282613077565b9050919050565b6130b281613097565b82525050565b60006020820190506130cd60008301846130a9565b92915050565b6130dc81613097565b81146130e757600080fd5b50565b6000813590506130f9816130d3565b92915050565b6000806040838503121561311657613115612e9d565b5b6000613124858286016130ea565b925050602061313585828601613035565b9150509250929050565b60008060006060848603121561315857613157612e9d565b5b6000613166868287016130ea565b9350506020613177868287016130ea565b925050604061318886828701613035565b9150509250925092565b61319b81613014565b82525050565b60006020820190506131b66000830184613192565b92915050565b600081519050919050565b600082825260208201905092915050565b6000819050602082019050919050565b6131f181613014565b82525050565b600082825260208201905092915050565b600061321382612f62565b61321d81856131f7565b935061322d818560208601612f7e565b61323681612fa8565b840191505092915050565b600060a08301600083015161325960008601826131e8565b50602083015184820360208601526132718282613208565b9150506040830151848203604086015261328b8282613208565b915050606083015184820360608601526132a58282613208565b915050608083015184820360808601526132bf8282613208565b9150508091505092915050565b6132d581612f2c565b82525050565b600060408301600083015184820360008601526132f88282613241565b915050602083015161330d60208601826132cc565b508091505092915050565b600061332483836132db565b905092915050565b6000602082019050919050565b6000613344826131bc565b61334e81856131c7565b935083602082028501613360856131d8565b8060005b8581101561339c578484038952815161337d8582613318565b94506133888361332c565b925060208a01995050600181019050613364565b50829750879550505050505092915050565b600060208201905081810360008301526133c88184613339565b905092915050565b6000602082840312156133e6576133e5612e9d565b5b60006133f4848285016130ea565b91505092915050565b600080fd5b600080fd5b600080fd5b60008083601f840112613422576134216133fd565b5b8235905067ffffffffffffffff81111561343f5761343e613402565b5b60208301915083600182028301111561345b5761345a613407565b5b9250929050565b6000806000806000806000806080898b03121561348257613481612e9d565b5b600089013567ffffffffffffffff8111156134a05761349f612ea2565b5b6134ac8b828c0161340c565b9850985050602089013567ffffffffffffffff8111156134cf576134ce612ea2565b5b6134db8b828c0161340c565b9650965050604089013567ffffffffffffffff8111156134fe576134fd612ea2565b5b61350a8b828c0161340c565b9450945050606089013567ffffffffffffffff81111561352d5761352c612ea2565b5b6135398b828c0161340c565b92509250509295985092959890939650565b600060408301600083015184820360008601526135688282613241565b915050602083015161357d60208601826132cc565b508091505092915050565b600060208201905081810360008301526135a2818461354b565b905092915050565b6135b381612f2c565b81146135be57600080fd5b50565b6000813590506135d0816135aa565b92915050565b600080604083850312156135ed576135ec612e9d565b5b60006135fb858286016130ea565b925050602061360c858286016135c1565b9150509250929050565b600080fd5b7f4e487b7100000000000000000000000000000000000000000000000000000000600052604160045260246000fd5b61365382612fa8565b810181811067ffffffffffffffff821117156136725761367161361b565b5b80604052505050565b6000613685612e93565b9050613691828261364a565b919050565b600067ffffffffffffffff8211156136b1576136b061361b565b5b6136ba82612fa8565b9050602081019050919050565b82818337600083830152505050565b60006136e96136e484613696565b61367b565b90508281526020810184848401111561370557613704613616565b5b6137108482856136c7565b509392505050565b600082601f83011261372d5761372c6133fd565b5b813561373d8482602086016136d6565b91505092915050565b600080600080608085870312156137605761375f612e9d565b5b600061376e878288016130ea565b945050602061377f878288016130ea565b935050604061379087828801613035565b925050606085013567ffffffffffffffff8111156137b1576137b0612ea2565b5b6137bd87828801613718565b91505092959194509250565b600080604083850312156137e0576137df612e9d565b5b60006137ee858286016130ea565b92505060206137ff858286016130ea565b9150509250929050565b7f4e487b7100000000000000000000000000000000000000000000000000000000600052602260045260246000fd5b6000600282049050600182168061385057607f821691505b60208210810361386357613862613809565b5b50919050565b7f4552433732313a20617070726f76616c20746f2063757272656e74206f776e6560008201527f7200000000000000000000000000000000000000000000000000000000000000602082015250565b60006138c5602183612f6d565b91506138d082613869565b604082019050919050565b600060208201905081810360008301526138f4816138b8565b9050919050565b7f4552433732313a20617070726f76652063616c6c6572206973206e6f7420746f60008201527f6b656e206f776e6572206f7220617070726f76656420666f7220616c6c000000602082015250565b6000613957603d83612f6d565b9150613962826138fb565b604082019050919050565b600060208201905081810360008301526139868161394a565b9050919050565b7f4e487b7100000000000000000000000000000000000000000000000000000000600052603260045260246000fd5b7f4e487b7100000000000000000000000000000000000000000000000000000000600052601160045260246000fd5b60006139f682613014565b91507fffffffffffffffffffffffffffffffffffffffffffffffffffffffffffffffff8203613a2857613a276139bc565b5b600182019050919050565b7f4552433732313a2063616c6c6572206973206e6f7420746f6b656e206f776e6560008201527f72206f7220617070726f76656400000000000000000000000000000000000000602082015250565b6000613a8f602d83612f6d565b9150613a9a82613a33565b604082019050919050565b60006020820190508181036000830152613abe81613a82565b9050919050565b7f4552433732313a20696e76616c696420746f6b656e2049440000000000000000600082015250565b6000613afb601883612f6d565b9150613b0682613ac5565b602082019050919050565b60006020820190508181036000830152613b2a81613aee565b9050919050565b7f596f75206e65656420746f20736f6c766520746865206b617461206265666f7260008201527f6500000000000000000000000000000000000000000000000000000000000000602082015250565b6000613b8d602183612f6d565b9150613b9882613b31565b604082019050919050565b60006020820190508181036000830152613bbc81613b80565b9050919050565b7f4552433732313a2061646472657373207a65726f206973206e6f74206120766160008201527f6c6964206f776e65720000000000000000000000000000000000000000000000602082015250565b6000613c1f602983612f6d565b9150613c2a82613bc3565b604082019050919050565b60006020820190508181036000830152613c4e81613c12565b9050919050565b60008190508160005260206000209050919050565b60006020601f8301049050919050565b600082821b905092915050565b600060088302613cb77fffffffffffffffffffffffffffffffffffffffffffffffffffffffffffffffff82613c7a565b613cc18683613c7a565b95508019841693508086168417925050509392505050565b6000819050919050565b6000613cfe613cf9613cf484613014565b613cd9565b613014565b9050919050565b6000819050919050565b613d1883613ce3565b613d2c613d2482613d05565b848454613c87565b825550505050565b600090565b613d41613d34565b613d4c818484613d0f565b505050565b5b81811015613d7057613d65600082613d39565b600181019050613d52565b5050565b601f821115613db557613d8681613c55565b613d8f84613c6a565b81016020851015613d9e578190505b613db2613daa85613c6a565b830182613d51565b50505b505050565b600082821c905092915050565b6000613dd860001984600802613dba565b1980831691505092915050565b6000613df18383613dc7565b9150826002028217905092915050565b613e0a82612f62565b67ffffffffffffffff811115613e2357613e2261361b565b5b613e2d8254613838565b613e38828285613d74565b600060209050601f831160018114613e6b5760008415613e59578287015190505b613e638582613de5565b865550613ecb565b601f198416613e7986613c55565b60005b82811015613ea157848901518255600182019150602085019450602081019050613e7c565b86831015613ebe5784890151613eba601f891682613dc7565b8355505b6001600288020188555050505b505050505050565b6000613ede82613014565b9150613ee983613014565b9250828203905081811115613f0157613f006139bc565b5b92915050565b7f4e6f7420666f756e640000000000000000000000000000000000000000000000600082015250565b6000613f3d600983612f6d565b9150613f4882613f07565b602082019050919050565b60006020820190508181036000830152613f6c81613f30565b9050919050565b7f4b61746120616c7265616479206f776e65640000000000000000000000000000600082015250565b6000613fa9601283612f6d565b9150613fb482613f73565b602082019050919050565b60006020820190508181036000830152613fd881613f9c565b9050919050565b600081905092915050565b6000613ff582612f62565b613fff8185613fdf565b935061400f818560208601612f7e565b80840191505092915050565b60006140278285613fea565b91506140338284613fea565b91508190509392505050565b7f4e6f7420656e6f75676820637265646974730000000000000000000000000000600082015250565b6000614075601283612f6d565b91506140808261403f565b602082019050919050565b600060208201905081810360008301526140a481614068565b9050919050565b7f6d696e696d756e20747279206973203230000000000000000000000000000000600082015250565b60006140e1601183612f6d565b91506140ec826140ab565b602082019050919050565b60006020820190508181036000830152614110816140d4565b9050919050565b600061412282613014565b915061412d83613014565b925082820261413b81613014565b91508282048414831517614152576141516139bc565b5b5092915050565b7f796f75206e65656420746f207061792074686520726967687420616d6f756e74600082015250565b600061418f602083612f6d565b915061419a82614159565b602082019050919050565b600060208201905081810360008301526141be81614182565b9050919050565b60006141d082613014565b91506141db83613014565b92508282019050808211156141f3576141f26139bc565b5b92915050565b7f4f776e61626c653a206e6577206f776e657220697320746865207a65726f206160008201527f6464726573730000000000000000000000000000000000000000000000000000602082015250565b6000614255602683612f6d565b9150614260826141f9565b604082019050919050565b6000602082019050818103600083015261428481614248565b9050919050565b7f4552433732313a207472616e736665722066726f6d20696e636f72726563742060008201527f6f776e6572000000000000000000000000000000000000000000000000000000602082015250565b60006142e7602583612f6d565b91506142f28261428b565b604082019050919050565b60006020820190508181036000830152614316816142da565b9050919050565b7f4552433732313a207472616e7366657220746f20746865207a65726f2061646460008201527f7265737300000000000000000000000000000000000000000000000000000000602082015250565b6000614379602483612f6d565b91506143848261431d565b604082019050919050565b600060208201905081810360008301526143a88161436c565b9050919050565b600060608201905081810360008301526143c98186612fb9565b90506143d860208301856130a9565b6143e56040830184613192565b949350505050565b7f4f776e61626c653a2063616c6c6572206973206e6f7420746865206f776e6572600082015250565b6000614423602083612f6d565b915061442e826143ed565b602082019050919050565b6000602082019050818103600083015261445281614416565b9050919050565b7f4552433732313a20617070726f766520746f2063616c6c657200000000000000600082015250565b600061448f601983612f6d565b915061449a82614459565b602082019050919050565b600060208201905081810360008301526144be81614482565b9050919050565b7f4552433732313a207472616e7366657220746f206e6f6e20455243373231526560008201527f63656976657220696d706c656d656e7465720000000000000000000000000000602082015250565b6000614521603283612f6d565b915061452c826144c5565b604082019050919050565b6000602082019050818103600083015261455081614514565b9050919050565b7f4e487b7100000000000000000000000000000000000000000000000000000000600052601260045260246000fd5b600081519050919050565b600082825260208201905092915050565b60006145ad82614586565b6145b78185614591565b93506145c7818560208601612f7e565b6145d081612fa8565b840191505092915050565b60006080820190506145f060008301876130a9565b6145fd60208301866130a9565b61460a6040830185613192565b818103606083015261461c81846145a2565b905095945050505050565b60008151905061463681612ed3565b92915050565b60006020828403121561465257614651612e9d565b5b600061466084828501614627565b91505092915050565b7f4552433732313a206d696e7420746f20746865207a65726f2061646472657373600082015250565b600061469f602083612f6d565b91506146aa82614669565b602082019050919050565b600060208201905081810360008301526146ce81614692565b9050919050565b7f4552433732313a20746f6b656e20616c7265616479206d696e74656400000000600082015250565b600061470b601c83612f6d565b9150614716826146d5565b602082019050919050565b6000602082019050818103600083015261473a816146fe565b905091905056fea26469706673582212202d2dad3422ebf1183e904c86375fddb48a39ae533efddb61d584ceadbf4dd3c564736f6c63430008110033",
  "linkReferences": {},
  "deployedLinkReferences": {}
}